{
  "contracts/IdentityVerifier.sol": {
    "IdentityVerifier": {
      "abi": [
        {
          "inputs": [],
          "stateMutability": "nonpayable",
          "type": "constructor"
        },
        {
          "inputs": [],
          "name": "AccessControlBadConfirmation",
          "type": "error"
        },
        {
          "inputs": [
            {
              "internalType": "address",
              "name": "account",
              "type": "address"
            },
            {
              "internalType": "bytes32",
              "name": "neededRole",
              "type": "bytes32"
            }
          ],
          "name": "AccessControlUnauthorizedAccount",
          "type": "error"
        },
        {
          "anonymous": false,
          "inputs": [
            {
              "indexed": true,
              "internalType": "address",
              "name": "user",
              "type": "address"
            },
            {
              "indexed": false,
              "internalType": "bytes32",
              "name": "document_hash",
              "type": "bytes32"
            }
          ],
          "name": "IdentityRegistered",
          "type": "event"
        },
        {
          "anonymous": false,
          "inputs": [
            {
              "indexed": true,
              "internalType": "address",
              "name": "user",
              "type": "address"
            },
            {
              "indexed": true,
              "internalType": "address",
              "name": "rejecter",
              "type": "address"
            }
          ],
          "name": "IdentityRejected",
          "type": "event"
        },
        {
          "anonymous": false,
          "inputs": [
            {
              "indexed": true,
              "internalType": "address",
              "name": "user",
              "type": "address"
            },
            {
              "indexed": true,
              "internalType": "address",
              "name": "revoker",
              "type": "address"
            }
          ],
          "name": "IdentityRevoked",
          "type": "event"
        },
        {
          "anonymous": false,
          "inputs": [
            {
              "indexed": true,
              "internalType": "address",
              "name": "user",
              "type": "address"
            },
            {
              "indexed": true,
              "internalType": "address",
              "name": "verifier",
              "type": "address"
            }
          ],
          "name": "IdentityVerified",
          "type": "event"
        },
        {
          "anonymous": false,
          "inputs": [
            {
              "indexed": true,
              "internalType": "bytes32",
              "name": "role",
              "type": "bytes32"
            },
            {
              "indexed": true,
              "internalType": "bytes32",
              "name": "previousAdminRole",
              "type": "bytes32"
            },
            {
              "indexed": true,
              "internalType": "bytes32",
              "name": "newAdminRole",
              "type": "bytes32"
            }
          ],
          "name": "RoleAdminChanged",
          "type": "event"
        },
        {
          "anonymous": false,
          "inputs": [
            {
              "indexed": true,
              "internalType": "bytes32",
              "name": "role",
              "type": "bytes32"
            },
            {
              "indexed": true,
              "internalType": "address",
              "name": "account",
              "type": "address"
            },
            {
              "indexed": true,
              "internalType": "address",
              "name": "sender",
              "type": "address"
            }
          ],
          "name": "RoleGranted",
          "type": "event"
        },
        {
          "anonymous": false,
          "inputs": [
            {
              "indexed": true,
              "internalType": "bytes32",
              "name": "role",
              "type": "bytes32"
            },
            {
              "indexed": true,
              "internalType": "address",
              "name": "account",
              "type": "address"
            },
            {
              "indexed": true,
              "internalType": "address",
              "name": "sender",
              "type": "address"
            }
          ],
          "name": "RoleRevoked",
          "type": "event"
        },
        {
          "inputs": [],
          "name": "DEFAULT_ADMIN_ROLE",
          "outputs": [
            {
              "internalType": "bytes32",
              "name": "",
              "type": "bytes32"
            }
          ],
          "stateMutability": "view",
          "type": "function"
        },
        {
          "inputs": [],
          "name": "VERIFIER_ROLE",
          "outputs": [
            {
              "internalType": "bytes32",
              "name": "",
              "type": "bytes32"
            }
          ],
          "stateMutability": "view",
          "type": "function"
        },
        {
          "inputs": [
            {
              "internalType": "address",
              "name": "_verifier",
              "type": "address"
            }
          ],
          "name": "addVerifier",
          "outputs": [],
          "stateMutability": "nonpayable",
          "type": "function"
        },
        {
          "inputs": [
            {
              "internalType": "address",
              "name": "_user",
              "type": "address"
            }
          ],
          "name": "getIdentityRecord",
          "outputs": [
            {
              "internalType": "bytes32",
              "name": "documentHash",
              "type": "bytes32"
            },
            {
              "internalType": "enum IdentityVerifier.Status",
              "name": "status",
              "type": "uint8"
            },
            {
              "internalType": "address",
              "name": "verifiedBy",
              "type": "address"
            },
            {
              "internalType": "uint64",
              "name": "timestamp",
              "type": "uint64"
            }
          ],
          "stateMutability": "view",
          "type": "function"
        },
        {
          "inputs": [
            {
              "internalType": "bytes32",
              "name": "role",
              "type": "bytes32"
            }
          ],
          "name": "getRoleAdmin",
          "outputs": [
            {
              "internalType": "bytes32",
              "name": "",
              "type": "bytes32"
            }
          ],
          "stateMutability": "view",
          "type": "function"
        },
        {
          "inputs": [
            {
              "internalType": "bytes32",
              "name": "role",
              "type": "bytes32"
            },
            {
              "internalType": "address",
              "name": "account",
              "type": "address"
            }
          ],
          "name": "grantRole",
          "outputs": [],
          "stateMutability": "nonpayable",
          "type": "function"
        },
        {
          "inputs": [
            {
              "internalType": "bytes32",
              "name": "role",
              "type": "bytes32"
            },
            {
              "internalType": "address",
              "name": "account",
              "type": "address"
            }
          ],
          "name": "hasRole",
          "outputs": [
            {
              "internalType": "bool",
              "name": "",
              "type": "bool"
            }
          ],
          "stateMutability": "view",
          "type": "function"
        },
        {
          "inputs": [
            {
              "internalType": "address",
              "name": "",
              "type": "address"
            }
          ],
          "name": "identities",
          "outputs": [
            {
              "internalType": "bytes32",
              "name": "document_hash",
              "type": "bytes32"
            },
            {
              "internalType": "enum IdentityVerifier.Status",
              "name": "status",
              "type": "uint8"
            },
            {
              "internalType": "address",
              "name": "verified_by",
              "type": "address"
            },
            {
              "internalType": "uint64",
              "name": "timestamp",
              "type": "uint64"
            }
          ],
          "stateMutability": "view",
          "type": "function"
        },
        {
          "inputs": [
            {
              "internalType": "address",
              "name": "_user",
              "type": "address"
            }
          ],
          "name": "isVerified",
          "outputs": [
            {
              "internalType": "bool",
              "name": "",
              "type": "bool"
            }
          ],
          "stateMutability": "view",
          "type": "function"
        },
        {
          "inputs": [
            {
              "internalType": "bytes32",
              "name": "_document_hash",
              "type": "bytes32"
            }
          ],
          "name": "registerIdentity",
          "outputs": [],
          "stateMutability": "nonpayable",
          "type": "function"
        },
        {
          "inputs": [
            {
              "internalType": "address",
              "name": "_user",
              "type": "address"
            }
          ],
          "name": "rejectIdentity",
          "outputs": [],
          "stateMutability": "nonpayable",
          "type": "function"
        },
        {
          "inputs": [
            {
              "internalType": "address",
              "name": "_verifier",
              "type": "address"
            }
          ],
          "name": "removeVerifier",
          "outputs": [],
          "stateMutability": "nonpayable",
          "type": "function"
        },
        {
          "inputs": [
            {
              "internalType": "bytes32",
              "name": "role",
              "type": "bytes32"
            },
            {
              "internalType": "address",
              "name": "callerConfirmation",
              "type": "address"
            }
          ],
          "name": "renounceRole",
          "outputs": [],
          "stateMutability": "nonpayable",
          "type": "function"
        },
        {
          "inputs": [
            {
              "internalType": "address",
              "name": "_user",
              "type": "address"
            }
          ],
          "name": "revokeIdentity",
          "outputs": [],
          "stateMutability": "nonpayable",
          "type": "function"
        },
        {
          "inputs": [
            {
              "internalType": "bytes32",
              "name": "role",
              "type": "bytes32"
            },
            {
              "internalType": "address",
              "name": "account",
              "type": "address"
            }
          ],
          "name": "revokeRole",
          "outputs": [],
          "stateMutability": "nonpayable",
          "type": "function"
        },
        {
          "inputs": [
            {
              "internalType": "bytes4",
              "name": "interfaceId",
              "type": "bytes4"
            }
          ],
          "name": "supportsInterface",
          "outputs": [
            {
              "internalType": "bool",
              "name": "",
              "type": "bool"
            }
          ],
          "stateMutability": "view",
          "type": "function"
        },
        {
          "inputs": [
            {
              "internalType": "address",
              "name": "_user",
              "type": "address"
            }
          ],
          "name": "verifyIdentity",
          "outputs": [],
          "stateMutability": "nonpayable",
          "type": "function"
        }
      ],
      "evm": {
        "bytecode": {
          "linkReferences": {},
          "object": "6080604052348015600f57600080fd5b506019600033601e565b5060c7565b6000828152602081815260408083206001600160a01b038516845290915281205460ff1660bd576000838152602081815260408083206001600160a01b03861684529091529020805460ff1916600117905560763390565b6001600160a01b0316826001600160a01b0316847f2f8788117e7eff1d82e926ec794901d17c78024a50270940304540a733656f0d60405160405180910390a450600160c1565b5060005b92915050565b610e1d806100d66000396000f3fe608060405234801561001057600080fd5b506004361061010b5760003560e01c80639000b3d6116100a2578063b9209e3311610071578063b9209e331461022e578063ca2dfd0a14610241578063d547741f14610254578063e7705db614610267578063f653b81e1461027c57600080fd5b80639000b3d6146101ed57806391d1485414610200578063a217fddf14610213578063b5b90fd91461021b57600080fd5b80632f2ff15d116100de5780632f2ff15d14610191578063333415e2146101a457806336568abe146101b75780635ad0c0bf146101ca57600080fd5b806301ffc9a7146101105780630ebddd1714610138578063103d9fae1461014d578063248a9ca314610160575b600080fd5b61012361011e366004610c83565b6102c8565b60405190151581526020015b60405180910390f35b61014b610146366004610cd0565b6102ff565b005b61014b61015b366004610ceb565b610467565b61018361016e366004610ceb565b60009081526020819052604090206001015490565b60405190815260200161012f565b61014b61019f366004610d04565b61065a565b61014b6101b2366004610cd0565b610685565b61014b6101c5366004610d04565b610797565b6101dd6101d8366004610cd0565b6107cf565b60405161012f9493929190610d46565b61014b6101fb366004610cd0565b610887565b61012361020e366004610d04565b6108ff565b610183600081565b61014b610229366004610cd0565b610928565b61012361023c366004610cd0565b610a71565b61014b61024f366004610cd0565b610aab565b61014b610262366004610d04565b610b1b565b610183600080516020610dc883398151915281565b6101dd61028a366004610cd0565b6001602081905260009182526040909120805491015460ff81169061010081046001600160a01b031690600160a81b900467ffffffffffffffff1684565b60006001600160e01b03198216637965db0b60e01b14806102f957506301ffc9a760e01b6001600160e01b03198316145b92915050565b600080516020610dc883398151915261031781610b40565b6001600160a01b0382166103465760405162461bcd60e51b815260040161033d90610d99565b60405180910390fd5b60026001600160a01b0383166000908152600160208190526040909120015460ff16600481111561037957610379610d30565b14806103b5575060016001600160a01b0383166000908152600160208190526040909120015460ff1660048111156103b3576103b3610d30565b145b6104135760405162461bcd60e51b815260206004820152602960248201527f43616e206f6e6c79207265766f6b65205665726966696564206f722050656e64604482015268696e6720757365727360b81b606482015260840161033d565b6001600160a01b0382166000818152600160208190526040808320909101805460ff19166003179055513392917fd7533bea9fdce549b772c9bf708932fcf1560edaa0c94df3f90e65e75eb7565791a35050565b60008190036104af5760405162461bcd60e51b8152602060048201526014602482015273486173682063616e6e6f7420626520656d70747960601b604482015260640161033d565b3360009081526001602081905260408220015460ff1660048111156104d6576104d6610d30565b148061050957506003336000908152600160208190526040909120015460ff16600481111561050757610507610d30565b145b6105645760405162461bcd60e51b815260206004820152602660248201527f4964656e7469747920616c72656164792072656769737465726564206f722070604482015265656e64696e6760d01b606482015260840161033d565b60408051608081018252828152600160208083018281526000848601819052606085018190523381529183905293902082518155925183820180549394939192909160ff1916908360048111156105bd576105bd610d30565b02179055506040828101516001909201805460609094015167ffffffffffffffff16600160a81b0267ffffffffffffffff60a81b196001600160a01b039094166101000293909316610100600160e81b031990941693909317919091179091555133907f209ae2eb4ff1890ce972a80ec3e167b52d41ab089135cc6430447b1430e824be9061064f9084815260200190565b60405180910390a250565b60008281526020819052604090206001015461067581610b40565b61067f8383610b4d565b50505050565b600080516020610dc883398151915261069d81610b40565b6001600160a01b0382166106c35760405162461bcd60e51b815260040161033d90610d99565b60016001600160a01b0383166000908152600160208190526040909120015460ff1660048111156106f6576106f6610d30565b146107435760405162461bcd60e51b815260206004820152601d60248201527f43616e206f6e6c792072656a6563742050656e64696e67207573657273000000604482015260640161033d565b6001600160a01b0382166000818152600160208190526040808320909101805460ff19166004179055513392917f52a850a224a7b0be57066372d4d888fc05800957baa5565f7c0478d951a174ba91a35050565b6001600160a01b03811633146107c05760405163334bd91960e11b815260040160405180910390fd5b6107ca8282610bdf565b505050565b6001600160a01b03811660009081526001602081815260408084208151608081019092528054825292830154849384938493849390929183019060ff16600481111561081d5761081d610d30565b600481111561082e5761082e610d30565b81526001919091015461010081046001600160a01b0316602080840191909152600160a81b90910467ffffffffffffffff1660409283015282519083015191830151606090930151909991985091965090945092505050565b600061089281610b40565b6001600160a01b0382166108e35760405162461bcd60e51b8152602060048201526018602482015277496e76616c6964207665726966696572206164647265737360401b604482015260640161033d565b6108fb600080516020610dc88339815191528361065a565b5050565b6000918252602082815260408084206001600160a01b0393909316845291905290205460ff1690565b600080516020610dc883398151915261094081610b40565b6001600160a01b0382166109665760405162461bcd60e51b815260040161033d90610d99565b60016001600160a01b0383166000908152600160208190526040909120015460ff16600481111561099957610999610d30565b146109e65760405162461bcd60e51b815260206004820152601d60248201527f55736572206973206e6f7420696e2050656e64696e6720737461747573000000604482015260640161033d565b6001600160a01b0382166000818152600160208190526040808320909101805460026001600160e81b031990911633610100810267ffffffffffffffff60a81b191691909117600160a81b4267ffffffffffffffff1602179190911790915590519092917f25e4589528aa4c1dcd5c91ab0cc06e99d962229fb9e54162702032772a1655a091a35050565b6001600160a01b03811660009081526001602081905260408220015460029060ff166004811115610aa457610aa4610d30565b1492915050565b6000610ab681610b40565b6001600160a01b038216610b075760405162461bcd60e51b8152602060048201526018602482015277496e76616c6964207665726966696572206164647265737360401b604482015260640161033d565b6108fb600080516020610dc8833981519152835b600082815260208190526040902060010154610b3681610b40565b61067f8383610bdf565b610b4a8133610c4a565b50565b6000610b5983836108ff565b610bd7576000838152602081815260408083206001600160a01b03861684529091529020805460ff19166001179055610b8f3390565b6001600160a01b0316826001600160a01b0316847f2f8788117e7eff1d82e926ec794901d17c78024a50270940304540a733656f0d60405160405180910390a45060016102f9565b5060006102f9565b6000610beb83836108ff565b15610bd7576000838152602081815260408083206001600160a01b0386168085529252808320805460ff1916905551339286917ff6391f5c32d9c69d2a47ea670b442974b53935d1edc7fd64eb21e047a839171b9190a45060016102f9565b610c5482826108ff565b6108fb5760405163e2517d3f60e01b81526001600160a01b03821660048201526024810183905260440161033d565b600060208284031215610c9557600080fd5b81356001600160e01b031981168114610cad57600080fd5b9392505050565b80356001600160a01b0381168114610ccb57600080fd5b919050565b600060208284031215610ce257600080fd5b610cad82610cb4565b600060208284031215610cfd57600080fd5b5035919050565b60008060408385031215610d1757600080fd5b82359150610d2760208401610cb4565b90509250929050565b634e487b7160e01b600052602160045260246000fd5b8481526080810160058510610d6b57634e487b7160e01b600052602160045260246000fd5b60208201949094526001600160a01b0392909216604083015267ffffffffffffffff16606090910152919050565b602080825260149082015273496e76616c69642075736572206164647265737360601b60408201526060019056fe0ce23c3e399818cfee81a7ab0880f714e53d7672b08df0fa62f2843416e1ea09a26469706673582212204713feb5b2ac2eb5add17e5ac04fc70bc6916657a110f345b0037e413fcba73964736f6c634300081c0033",
          "opcodes": "PUSH1 0x80 PUSH1 0x40 MSTORE CALLVALUE DUP1 ISZERO PUSH1 0xF JUMPI PUSH1 0x0 DUP1 REVERT JUMPDEST POP PUSH1 0x19 PUSH1 0x0 CALLER PUSH1 0x1E JUMP JUMPDEST POP PUSH1 0xC7 JUMP JUMPDEST PUSH1 0x0 DUP3 DUP2 MSTORE PUSH1 0x20 DUP2 DUP2 MSTORE PUSH1 0x40 DUP1 DUP4 KECCAK256 PUSH1 0x1 PUSH1 0x1 PUSH1 0xA0 SHL SUB DUP6 AND DUP5 MSTORE SWAP1 SWAP2 MSTORE DUP2 KECCAK256 SLOAD PUSH1 0xFF AND PUSH1 0xBD JUMPI PUSH1 0x0 DUP4 DUP2 MSTORE PUSH1 0x20 DUP2 DUP2 MSTORE PUSH1 0x40 DUP1 DUP4 KECCAK256 PUSH1 0x1 PUSH1 0x1 PUSH1 0xA0 SHL SUB DUP7 AND DUP5 MSTORE SWAP1 SWAP2 MSTORE SWAP1 KECCAK256 DUP1 SLOAD PUSH1 0xFF NOT AND PUSH1 0x1 OR SWAP1 SSTORE PUSH1 0x76 CALLER SWAP1 JUMP JUMPDEST PUSH1 0x1 PUSH1 0x1 PUSH1 0xA0 SHL SUB AND DUP3 PUSH1 0x1 PUSH1 0x1 PUSH1 0xA0 SHL SUB AND DUP5 PUSH32 0x2F8788117E7EFF1D82E926EC794901D17C78024A50270940304540A733656F0D PUSH1 0x40 MLOAD PUSH1 0x40 MLOAD DUP1 SWAP2 SUB SWAP1 LOG4 POP PUSH1 0x1 PUSH1 0xC1 JUMP JUMPDEST POP PUSH1 0x0 JUMPDEST SWAP3 SWAP2 POP POP JUMP JUMPDEST PUSH2 0xE1D DUP1 PUSH2 0xD6 PUSH1 0x0 CODECOPY PUSH1 0x0 RETURN INVALID PUSH1 0x80 PUSH1 0x40 MSTORE CALLVALUE DUP1 ISZERO PUSH2 0x10 JUMPI PUSH1 0x0 DUP1 REVERT JUMPDEST POP PUSH1 0x4 CALLDATASIZE LT PUSH2 0x10B JUMPI PUSH1 0x0 CALLDATALOAD PUSH1 0xE0 SHR DUP1 PUSH4 0x9000B3D6 GT PUSH2 0xA2 JUMPI DUP1 PUSH4 0xB9209E33 GT PUSH2 0x71 JUMPI DUP1 PUSH4 0xB9209E33 EQ PUSH2 0x22E JUMPI DUP1 PUSH4 0xCA2DFD0A EQ PUSH2 0x241 JUMPI DUP1 PUSH4 0xD547741F EQ PUSH2 0x254 JUMPI DUP1 PUSH4 0xE7705DB6 EQ PUSH2 0x267 JUMPI DUP1 PUSH4 0xF653B81E EQ PUSH2 0x27C JUMPI PUSH1 0x0 DUP1 REVERT JUMPDEST DUP1 PUSH4 0x9000B3D6 EQ PUSH2 0x1ED JUMPI DUP1 PUSH4 0x91D14854 EQ PUSH2 0x200 JUMPI DUP1 PUSH4 0xA217FDDF EQ PUSH2 0x213 JUMPI DUP1 PUSH4 0xB5B90FD9 EQ PUSH2 0x21B JUMPI PUSH1 0x0 DUP1 REVERT JUMPDEST DUP1 PUSH4 0x2F2FF15D GT PUSH2 0xDE JUMPI DUP1 PUSH4 0x2F2FF15D EQ PUSH2 0x191 JUMPI DUP1 PUSH4 0x333415E2 EQ PUSH2 0x1A4 JUMPI DUP1 PUSH4 0x36568ABE EQ PUSH2 0x1B7 JUMPI DUP1 PUSH4 0x5AD0C0BF EQ PUSH2 0x1CA JUMPI PUSH1 0x0 DUP1 REVERT JUMPDEST DUP1 PUSH4 0x1FFC9A7 EQ PUSH2 0x110 JUMPI DUP1 PUSH4 0xEBDDD17 EQ PUSH2 0x138 JUMPI DUP1 PUSH4 0x103D9FAE EQ PUSH2 0x14D JUMPI DUP1 PUSH4 0x248A9CA3 EQ PUSH2 0x160 JUMPI JUMPDEST PUSH1 0x0 DUP1 REVERT JUMPDEST PUSH2 0x123 PUSH2 0x11E CALLDATASIZE PUSH1 0x4 PUSH2 0xC83 JUMP JUMPDEST PUSH2 0x2C8 JUMP JUMPDEST PUSH1 0x40 MLOAD SWAP1 ISZERO ISZERO DUP2 MSTORE PUSH1 0x20 ADD JUMPDEST PUSH1 0x40 MLOAD DUP1 SWAP2 SUB SWAP1 RETURN JUMPDEST PUSH2 0x14B PUSH2 0x146 CALLDATASIZE PUSH1 0x4 PUSH2 0xCD0 JUMP JUMPDEST PUSH2 0x2FF JUMP JUMPDEST STOP JUMPDEST PUSH2 0x14B PUSH2 0x15B CALLDATASIZE PUSH1 0x4 PUSH2 0xCEB JUMP JUMPDEST PUSH2 0x467 JUMP JUMPDEST PUSH2 0x183 PUSH2 0x16E CALLDATASIZE PUSH1 0x4 PUSH2 0xCEB JUMP JUMPDEST PUSH1 0x0 SWAP1 DUP2 MSTORE PUSH1 0x20 DUP2 SWAP1 MSTORE PUSH1 0x40 SWAP1 KECCAK256 PUSH1 0x1 ADD SLOAD SWAP1 JUMP JUMPDEST PUSH1 0x40 MLOAD SWAP1 DUP2 MSTORE PUSH1 0x20 ADD PUSH2 0x12F JUMP JUMPDEST PUSH2 0x14B PUSH2 0x19F CALLDATASIZE PUSH1 0x4 PUSH2 0xD04 JUMP JUMPDEST PUSH2 0x65A JUMP JUMPDEST PUSH2 0x14B PUSH2 0x1B2 CALLDATASIZE PUSH1 0x4 PUSH2 0xCD0 JUMP JUMPDEST PUSH2 0x685 JUMP JUMPDEST PUSH2 0x14B PUSH2 0x1C5 CALLDATASIZE PUSH1 0x4 PUSH2 0xD04 JUMP JUMPDEST PUSH2 0x797 JUMP JUMPDEST PUSH2 0x1DD PUSH2 0x1D8 CALLDATASIZE PUSH1 0x4 PUSH2 0xCD0 JUMP JUMPDEST PUSH2 0x7CF JUMP JUMPDEST PUSH1 0x40 MLOAD PUSH2 0x12F SWAP5 SWAP4 SWAP3 SWAP2 SWAP1 PUSH2 0xD46 JUMP JUMPDEST PUSH2 0x14B PUSH2 0x1FB CALLDATASIZE PUSH1 0x4 PUSH2 0xCD0 JUMP JUMPDEST PUSH2 0x887 JUMP JUMPDEST PUSH2 0x123 PUSH2 0x20E CALLDATASIZE PUSH1 0x4 PUSH2 0xD04 JUMP JUMPDEST PUSH2 0x8FF JUMP JUMPDEST PUSH2 0x183 PUSH1 0x0 DUP2 JUMP JUMPDEST PUSH2 0x14B PUSH2 0x229 CALLDATASIZE PUSH1 0x4 PUSH2 0xCD0 JUMP JUMPDEST PUSH2 0x928 JUMP JUMPDEST PUSH2 0x123 PUSH2 0x23C CALLDATASIZE PUSH1 0x4 PUSH2 0xCD0 JUMP JUMPDEST PUSH2 0xA71 JUMP JUMPDEST PUSH2 0x14B PUSH2 0x24F CALLDATASIZE PUSH1 0x4 PUSH2 0xCD0 JUMP JUMPDEST PUSH2 0xAAB JUMP JUMPDEST PUSH2 0x14B PUSH2 0x262 CALLDATASIZE PUSH1 0x4 PUSH2 0xD04 JUMP JUMPDEST PUSH2 0xB1B JUMP JUMPDEST PUSH2 0x183 PUSH1 0x0 DUP1 MLOAD PUSH1 0x20 PUSH2 0xDC8 DUP4 CODECOPY DUP2 MLOAD SWAP2 MSTORE DUP2 JUMP JUMPDEST PUSH2 0x1DD PUSH2 0x28A CALLDATASIZE PUSH1 0x4 PUSH2 0xCD0 JUMP JUMPDEST PUSH1 0x1 PUSH1 0x20 DUP2 SWAP1 MSTORE PUSH1 0x0 SWAP2 DUP3 MSTORE PUSH1 0x40 SWAP1 SWAP2 KECCAK256 DUP1 SLOAD SWAP2 ADD SLOAD PUSH1 0xFF DUP2 AND SWAP1 PUSH2 0x100 DUP2 DIV PUSH1 0x1 PUSH1 0x1 PUSH1 0xA0 SHL SUB AND SWAP1 PUSH1 0x1 PUSH1 0xA8 SHL SWAP1 DIV PUSH8 0xFFFFFFFFFFFFFFFF AND DUP5 JUMP JUMPDEST PUSH1 0x0 PUSH1 0x1 PUSH1 0x1 PUSH1 0xE0 SHL SUB NOT DUP3 AND PUSH4 0x7965DB0B PUSH1 0xE0 SHL EQ DUP1 PUSH2 0x2F9 JUMPI POP PUSH4 0x1FFC9A7 PUSH1 0xE0 SHL PUSH1 0x1 PUSH1 0x1 PUSH1 0xE0 SHL SUB NOT DUP4 AND EQ JUMPDEST SWAP3 SWAP2 POP POP JUMP JUMPDEST PUSH1 0x0 DUP1 MLOAD PUSH1 0x20 PUSH2 0xDC8 DUP4 CODECOPY DUP2 MLOAD SWAP2 MSTORE PUSH2 0x317 DUP2 PUSH2 0xB40 JUMP JUMPDEST PUSH1 0x1 PUSH1 0x1 PUSH1 0xA0 SHL SUB DUP3 AND PUSH2 0x346 JUMPI PUSH1 0x40 MLOAD PUSH3 0x461BCD PUSH1 0xE5 SHL DUP2 MSTORE PUSH1 0x4 ADD PUSH2 0x33D SWAP1 PUSH2 0xD99 JUMP JUMPDEST PUSH1 0x40 MLOAD DUP1 SWAP2 SUB SWAP1 REVERT JUMPDEST PUSH1 0x2 PUSH1 0x1 PUSH1 0x1 PUSH1 0xA0 SHL SUB DUP4 AND PUSH1 0x0 SWAP1 DUP2 MSTORE PUSH1 0x1 PUSH1 0x20 DUP2 SWAP1 MSTORE PUSH1 0x40 SWAP1 SWAP2 KECCAK256 ADD SLOAD PUSH1 0xFF AND PUSH1 0x4 DUP2 GT ISZERO PUSH2 0x379 JUMPI PUSH2 0x379 PUSH2 0xD30 JUMP JUMPDEST EQ DUP1 PUSH2 0x3B5 JUMPI POP PUSH1 0x1 PUSH1 0x1 PUSH1 0x1 PUSH1 0xA0 SHL SUB DUP4 AND PUSH1 0x0 SWAP1 DUP2 MSTORE PUSH1 0x1 PUSH1 0x20 DUP2 SWAP1 MSTORE PUSH1 0x40 SWAP1 SWAP2 KECCAK256 ADD SLOAD PUSH1 0xFF AND PUSH1 0x4 DUP2 GT ISZERO PUSH2 0x3B3 JUMPI PUSH2 0x3B3 PUSH2 0xD30 JUMP JUMPDEST EQ JUMPDEST PUSH2 0x413 JUMPI PUSH1 0x40 MLOAD PUSH3 0x461BCD PUSH1 0xE5 SHL DUP2 MSTORE PUSH1 0x20 PUSH1 0x4 DUP3 ADD MSTORE PUSH1 0x29 PUSH1 0x24 DUP3 ADD MSTORE PUSH32 0x43616E206F6E6C79207265766F6B65205665726966696564206F722050656E64 PUSH1 0x44 DUP3 ADD MSTORE PUSH9 0x696E67207573657273 PUSH1 0xB8 SHL PUSH1 0x64 DUP3 ADD MSTORE PUSH1 0x84 ADD PUSH2 0x33D JUMP JUMPDEST PUSH1 0x1 PUSH1 0x1 PUSH1 0xA0 SHL SUB DUP3 AND PUSH1 0x0 DUP2 DUP2 MSTORE PUSH1 0x1 PUSH1 0x20 DUP2 SWAP1 MSTORE PUSH1 0x40 DUP1 DUP4 KECCAK256 SWAP1 SWAP2 ADD DUP1 SLOAD PUSH1 0xFF NOT AND PUSH1 0x3 OR SWAP1 SSTORE MLOAD CALLER SWAP3 SWAP2 PUSH32 0xD7533BEA9FDCE549B772C9BF708932FCF1560EDAA0C94DF3F90E65E75EB75657 SWAP2 LOG3 POP POP JUMP JUMPDEST PUSH1 0x0 DUP2 SWAP1 SUB PUSH2 0x4AF JUMPI PUSH1 0x40 MLOAD PUSH3 0x461BCD PUSH1 0xE5 SHL DUP2 MSTORE PUSH1 0x20 PUSH1 0x4 DUP3 ADD MSTORE PUSH1 0x14 PUSH1 0x24 DUP3 ADD MSTORE PUSH20 0x486173682063616E6E6F7420626520656D707479 PUSH1 0x60 SHL PUSH1 0x44 DUP3 ADD MSTORE PUSH1 0x64 ADD PUSH2 0x33D JUMP JUMPDEST CALLER PUSH1 0x0 SWAP1 DUP2 MSTORE PUSH1 0x1 PUSH1 0x20 DUP2 SWAP1 MSTORE PUSH1 0x40 DUP3 KECCAK256 ADD SLOAD PUSH1 0xFF AND PUSH1 0x4 DUP2 GT ISZERO PUSH2 0x4D6 JUMPI PUSH2 0x4D6 PUSH2 0xD30 JUMP JUMPDEST EQ DUP1 PUSH2 0x509 JUMPI POP PUSH1 0x3 CALLER PUSH1 0x0 SWAP1 DUP2 MSTORE PUSH1 0x1 PUSH1 0x20 DUP2 SWAP1 MSTORE PUSH1 0x40 SWAP1 SWAP2 KECCAK256 ADD SLOAD PUSH1 0xFF AND PUSH1 0x4 DUP2 GT ISZERO PUSH2 0x507 JUMPI PUSH2 0x507 PUSH2 0xD30 JUMP JUMPDEST EQ JUMPDEST PUSH2 0x564 JUMPI PUSH1 0x40 MLOAD PUSH3 0x461BCD PUSH1 0xE5 SHL DUP2 MSTORE PUSH1 0x20 PUSH1 0x4 DUP3 ADD MSTORE PUSH1 0x26 PUSH1 0x24 DUP3 ADD MSTORE PUSH32 0x4964656E7469747920616C72656164792072656769737465726564206F722070 PUSH1 0x44 DUP3 ADD MSTORE PUSH6 0x656E64696E67 PUSH1 0xD0 SHL PUSH1 0x64 DUP3 ADD MSTORE PUSH1 0x84 ADD PUSH2 0x33D JUMP JUMPDEST PUSH1 0x40 DUP1 MLOAD PUSH1 0x80 DUP2 ADD DUP3 MSTORE DUP3 DUP2 MSTORE PUSH1 0x1 PUSH1 0x20 DUP1 DUP4 ADD DUP3 DUP2 MSTORE PUSH1 0x0 DUP5 DUP7 ADD DUP2 SWAP1 MSTORE PUSH1 0x60 DUP6 ADD DUP2 SWAP1 MSTORE CALLER DUP2 MSTORE SWAP2 DUP4 SWAP1 MSTORE SWAP4 SWAP1 KECCAK256 DUP3 MLOAD DUP2 SSTORE SWAP3 MLOAD DUP4 DUP3 ADD DUP1 SLOAD SWAP4 SWAP5 SWAP4 SWAP2 SWAP3 SWAP1 SWAP2 PUSH1 0xFF NOT AND SWAP1 DUP4 PUSH1 0x4 DUP2 GT ISZERO PUSH2 0x5BD JUMPI PUSH2 0x5BD PUSH2 0xD30 JUMP JUMPDEST MUL OR SWAP1 SSTORE POP PUSH1 0x40 DUP3 DUP2 ADD MLOAD PUSH1 0x1 SWAP1 SWAP3 ADD DUP1 SLOAD PUSH1 0x60 SWAP1 SWAP5 ADD MLOAD PUSH8 0xFFFFFFFFFFFFFFFF AND PUSH1 0x1 PUSH1 0xA8 SHL MUL PUSH8 0xFFFFFFFFFFFFFFFF PUSH1 0xA8 SHL NOT PUSH1 0x1 PUSH1 0x1 PUSH1 0xA0 SHL SUB SWAP1 SWAP5 AND PUSH2 0x100 MUL SWAP4 SWAP1 SWAP4 AND PUSH2 0x100 PUSH1 0x1 PUSH1 0xE8 SHL SUB NOT SWAP1 SWAP5 AND SWAP4 SWAP1 SWAP4 OR SWAP2 SWAP1 SWAP2 OR SWAP1 SWAP2 SSTORE MLOAD CALLER SWAP1 PUSH32 0x209AE2EB4FF1890CE972A80EC3E167B52D41AB089135CC6430447B1430E824BE SWAP1 PUSH2 0x64F SWAP1 DUP5 DUP2 MSTORE PUSH1 0x20 ADD SWAP1 JUMP JUMPDEST PUSH1 0x40 MLOAD DUP1 SWAP2 SUB SWAP1 LOG2 POP JUMP JUMPDEST PUSH1 0x0 DUP3 DUP2 MSTORE PUSH1 0x20 DUP2 SWAP1 MSTORE PUSH1 0x40 SWAP1 KECCAK256 PUSH1 0x1 ADD SLOAD PUSH2 0x675 DUP2 PUSH2 0xB40 JUMP JUMPDEST PUSH2 0x67F DUP4 DUP4 PUSH2 0xB4D JUMP JUMPDEST POP POP POP POP JUMP JUMPDEST PUSH1 0x0 DUP1 MLOAD PUSH1 0x20 PUSH2 0xDC8 DUP4 CODECOPY DUP2 MLOAD SWAP2 MSTORE PUSH2 0x69D DUP2 PUSH2 0xB40 JUMP JUMPDEST PUSH1 0x1 PUSH1 0x1 PUSH1 0xA0 SHL SUB DUP3 AND PUSH2 0x6C3 JUMPI PUSH1 0x40 MLOAD PUSH3 0x461BCD PUSH1 0xE5 SHL DUP2 MSTORE PUSH1 0x4 ADD PUSH2 0x33D SWAP1 PUSH2 0xD99 JUMP JUMPDEST PUSH1 0x1 PUSH1 0x1 PUSH1 0x1 PUSH1 0xA0 SHL SUB DUP4 AND PUSH1 0x0 SWAP1 DUP2 MSTORE PUSH1 0x1 PUSH1 0x20 DUP2 SWAP1 MSTORE PUSH1 0x40 SWAP1 SWAP2 KECCAK256 ADD SLOAD PUSH1 0xFF AND PUSH1 0x4 DUP2 GT ISZERO PUSH2 0x6F6 JUMPI PUSH2 0x6F6 PUSH2 0xD30 JUMP JUMPDEST EQ PUSH2 0x743 JUMPI PUSH1 0x40 MLOAD PUSH3 0x461BCD PUSH1 0xE5 SHL DUP2 MSTORE PUSH1 0x20 PUSH1 0x4 DUP3 ADD MSTORE PUSH1 0x1D PUSH1 0x24 DUP3 ADD MSTORE PUSH32 0x43616E206F6E6C792072656A6563742050656E64696E67207573657273000000 PUSH1 0x44 DUP3 ADD MSTORE PUSH1 0x64 ADD PUSH2 0x33D JUMP JUMPDEST PUSH1 0x1 PUSH1 0x1 PUSH1 0xA0 SHL SUB DUP3 AND PUSH1 0x0 DUP2 DUP2 MSTORE PUSH1 0x1 PUSH1 0x20 DUP2 SWAP1 MSTORE PUSH1 0x40 DUP1 DUP4 KECCAK256 SWAP1 SWAP2 ADD DUP1 SLOAD PUSH1 0xFF NOT AND PUSH1 0x4 OR SWAP1 SSTORE MLOAD CALLER SWAP3 SWAP2 PUSH32 0x52A850A224A7B0BE57066372D4D888FC05800957BAA5565F7C0478D951A174BA SWAP2 LOG3 POP POP JUMP JUMPDEST PUSH1 0x1 PUSH1 0x1 PUSH1 0xA0 SHL SUB DUP2 AND CALLER EQ PUSH2 0x7C0 JUMPI PUSH1 0x40 MLOAD PUSH4 0x334BD919 PUSH1 0xE1 SHL DUP2 MSTORE PUSH1 0x4 ADD PUSH1 0x40 MLOAD DUP1 SWAP2 SUB SWAP1 REVERT JUMPDEST PUSH2 0x7CA DUP3 DUP3 PUSH2 0xBDF JUMP JUMPDEST POP POP POP JUMP JUMPDEST PUSH1 0x1 PUSH1 0x1 PUSH1 0xA0 SHL SUB DUP2 AND PUSH1 0x0 SWAP1 DUP2 MSTORE PUSH1 0x1 PUSH1 0x20 DUP2 DUP2 MSTORE PUSH1 0x40 DUP1 DUP5 KECCAK256 DUP2 MLOAD PUSH1 0x80 DUP2 ADD SWAP1 SWAP3 MSTORE DUP1 SLOAD DUP3 MSTORE SWAP3 DUP4 ADD SLOAD DUP5 SWAP4 DUP5 SWAP4 DUP5 SWAP4 DUP5 SWAP4 SWAP1 SWAP3 SWAP2 DUP4 ADD SWAP1 PUSH1 0xFF AND PUSH1 0x4 DUP2 GT ISZERO PUSH2 0x81D JUMPI PUSH2 0x81D PUSH2 0xD30 JUMP JUMPDEST PUSH1 0x4 DUP2 GT ISZERO PUSH2 0x82E JUMPI PUSH2 0x82E PUSH2 0xD30 JUMP JUMPDEST DUP2 MSTORE PUSH1 0x1 SWAP2 SWAP1 SWAP2 ADD SLOAD PUSH2 0x100 DUP2 DIV PUSH1 0x1 PUSH1 0x1 PUSH1 0xA0 SHL SUB AND PUSH1 0x20 DUP1 DUP5 ADD SWAP2 SWAP1 SWAP2 MSTORE PUSH1 0x1 PUSH1 0xA8 SHL SWAP1 SWAP2 DIV PUSH8 0xFFFFFFFFFFFFFFFF AND PUSH1 0x40 SWAP3 DUP4 ADD MSTORE DUP3 MLOAD SWAP1 DUP4 ADD MLOAD SWAP2 DUP4 ADD MLOAD PUSH1 0x60 SWAP1 SWAP4 ADD MLOAD SWAP1 SWAP10 SWAP2 SWAP9 POP SWAP2 SWAP7 POP SWAP1 SWAP5 POP SWAP3 POP POP POP JUMP JUMPDEST PUSH1 0x0 PUSH2 0x892 DUP2 PUSH2 0xB40 JUMP JUMPDEST PUSH1 0x1 PUSH1 0x1 PUSH1 0xA0 SHL SUB DUP3 AND PUSH2 0x8E3 JUMPI PUSH1 0x40 MLOAD PUSH3 0x461BCD PUSH1 0xE5 SHL DUP2 MSTORE PUSH1 0x20 PUSH1 0x4 DUP3 ADD MSTORE PUSH1 0x18 PUSH1 0x24 DUP3 ADD MSTORE PUSH24 0x496E76616C69642076657269666965722061646472657373 PUSH1 0x40 SHL PUSH1 0x44 DUP3 ADD MSTORE PUSH1 0x64 ADD PUSH2 0x33D JUMP JUMPDEST PUSH2 0x8FB PUSH1 0x0 DUP1 MLOAD PUSH1 0x20 PUSH2 0xDC8 DUP4 CODECOPY DUP2 MLOAD SWAP2 MSTORE DUP4 PUSH2 0x65A JUMP JUMPDEST POP POP JUMP JUMPDEST PUSH1 0x0 SWAP2 DUP3 MSTORE PUSH1 0x20 DUP3 DUP2 MSTORE PUSH1 0x40 DUP1 DUP5 KECCAK256 PUSH1 0x1 PUSH1 0x1 PUSH1 0xA0 SHL SUB SWAP4 SWAP1 SWAP4 AND DUP5 MSTORE SWAP2 SWAP1 MSTORE SWAP1 KECCAK256 SLOAD PUSH1 0xFF AND SWAP1 JUMP JUMPDEST PUSH1 0x0 DUP1 MLOAD PUSH1 0x20 PUSH2 0xDC8 DUP4 CODECOPY DUP2 MLOAD SWAP2 MSTORE PUSH2 0x940 DUP2 PUSH2 0xB40 JUMP JUMPDEST PUSH1 0x1 PUSH1 0x1 PUSH1 0xA0 SHL SUB DUP3 AND PUSH2 0x966 JUMPI PUSH1 0x40 MLOAD PUSH3 0x461BCD PUSH1 0xE5 SHL DUP2 MSTORE PUSH1 0x4 ADD PUSH2 0x33D SWAP1 PUSH2 0xD99 JUMP JUMPDEST PUSH1 0x1 PUSH1 0x1 PUSH1 0x1 PUSH1 0xA0 SHL SUB DUP4 AND PUSH1 0x0 SWAP1 DUP2 MSTORE PUSH1 0x1 PUSH1 0x20 DUP2 SWAP1 MSTORE PUSH1 0x40 SWAP1 SWAP2 KECCAK256 ADD SLOAD PUSH1 0xFF AND PUSH1 0x4 DUP2 GT ISZERO PUSH2 0x999 JUMPI PUSH2 0x999 PUSH2 0xD30 JUMP JUMPDEST EQ PUSH2 0x9E6 JUMPI PUSH1 0x40 MLOAD PUSH3 0x461BCD PUSH1 0xE5 SHL DUP2 MSTORE PUSH1 0x20 PUSH1 0x4 DUP3 ADD MSTORE PUSH1 0x1D PUSH1 0x24 DUP3 ADD MSTORE PUSH32 0x55736572206973206E6F7420696E2050656E64696E6720737461747573000000 PUSH1 0x44 DUP3 ADD MSTORE PUSH1 0x64 ADD PUSH2 0x33D JUMP JUMPDEST PUSH1 0x1 PUSH1 0x1 PUSH1 0xA0 SHL SUB DUP3 AND PUSH1 0x0 DUP2 DUP2 MSTORE PUSH1 0x1 PUSH1 0x20 DUP2 SWAP1 MSTORE PUSH1 0x40 DUP1 DUP4 KECCAK256 SWAP1 SWAP2 ADD DUP1 SLOAD PUSH1 0x2 PUSH1 0x1 PUSH1 0x1 PUSH1 0xE8 SHL SUB NOT SWAP1 SWAP2 AND CALLER PUSH2 0x100 DUP2 MUL PUSH8 0xFFFFFFFFFFFFFFFF PUSH1 0xA8 SHL NOT AND SWAP2 SWAP1 SWAP2 OR PUSH1 0x1 PUSH1 0xA8 SHL TIMESTAMP PUSH8 0xFFFFFFFFFFFFFFFF AND MUL OR SWAP2 SWAP1 SWAP2 OR SWAP1 SWAP2 SSTORE SWAP1 MLOAD SWAP1 SWAP3 SWAP2 PUSH32 0x25E4589528AA4C1DCD5C91AB0CC06E99D962229FB9E54162702032772A1655A0 SWAP2 LOG3 POP POP JUMP JUMPDEST PUSH1 0x1 PUSH1 0x1 PUSH1 0xA0 SHL SUB DUP2 AND PUSH1 0x0 SWAP1 DUP2 MSTORE PUSH1 0x1 PUSH1 0x20 DUP2 SWAP1 MSTORE PUSH1 0x40 DUP3 KECCAK256 ADD SLOAD PUSH1 0x2 SWAP1 PUSH1 0xFF AND PUSH1 0x4 DUP2 GT ISZERO PUSH2 0xAA4 JUMPI PUSH2 0xAA4 PUSH2 0xD30 JUMP JUMPDEST EQ SWAP3 SWAP2 POP POP JUMP JUMPDEST PUSH1 0x0 PUSH2 0xAB6 DUP2 PUSH2 0xB40 JUMP JUMPDEST PUSH1 0x1 PUSH1 0x1 PUSH1 0xA0 SHL SUB DUP3 AND PUSH2 0xB07 JUMPI PUSH1 0x40 MLOAD PUSH3 0x461BCD PUSH1 0xE5 SHL DUP2 MSTORE PUSH1 0x20 PUSH1 0x4 DUP3 ADD MSTORE PUSH1 0x18 PUSH1 0x24 DUP3 ADD MSTORE PUSH24 0x496E76616C69642076657269666965722061646472657373 PUSH1 0x40 SHL PUSH1 0x44 DUP3 ADD MSTORE PUSH1 0x64 ADD PUSH2 0x33D JUMP JUMPDEST PUSH2 0x8FB PUSH1 0x0 DUP1 MLOAD PUSH1 0x20 PUSH2 0xDC8 DUP4 CODECOPY DUP2 MLOAD SWAP2 MSTORE DUP4 JUMPDEST PUSH1 0x0 DUP3 DUP2 MSTORE PUSH1 0x20 DUP2 SWAP1 MSTORE PUSH1 0x40 SWAP1 KECCAK256 PUSH1 0x1 ADD SLOAD PUSH2 0xB36 DUP2 PUSH2 0xB40 JUMP JUMPDEST PUSH2 0x67F DUP4 DUP4 PUSH2 0xBDF JUMP JUMPDEST PUSH2 0xB4A DUP2 CALLER PUSH2 0xC4A JUMP JUMPDEST POP JUMP JUMPDEST PUSH1 0x0 PUSH2 0xB59 DUP4 DUP4 PUSH2 0x8FF JUMP JUMPDEST PUSH2 0xBD7 JUMPI PUSH1 0x0 DUP4 DUP2 MSTORE PUSH1 0x20 DUP2 DUP2 MSTORE PUSH1 0x40 DUP1 DUP4 KECCAK256 PUSH1 0x1 PUSH1 0x1 PUSH1 0xA0 SHL SUB DUP7 AND DUP5 MSTORE SWAP1 SWAP2 MSTORE SWAP1 KECCAK256 DUP1 SLOAD PUSH1 0xFF NOT AND PUSH1 0x1 OR SWAP1 SSTORE PUSH2 0xB8F CALLER SWAP1 JUMP JUMPDEST PUSH1 0x1 PUSH1 0x1 PUSH1 0xA0 SHL SUB AND DUP3 PUSH1 0x1 PUSH1 0x1 PUSH1 0xA0 SHL SUB AND DUP5 PUSH32 0x2F8788117E7EFF1D82E926EC794901D17C78024A50270940304540A733656F0D PUSH1 0x40 MLOAD PUSH1 0x40 MLOAD DUP1 SWAP2 SUB SWAP1 LOG4 POP PUSH1 0x1 PUSH2 0x2F9 JUMP JUMPDEST POP PUSH1 0x0 PUSH2 0x2F9 JUMP JUMPDEST PUSH1 0x0 PUSH2 0xBEB DUP4 DUP4 PUSH2 0x8FF JUMP JUMPDEST ISZERO PUSH2 0xBD7 JUMPI PUSH1 0x0 DUP4 DUP2 MSTORE PUSH1 0x20 DUP2 DUP2 MSTORE PUSH1 0x40 DUP1 DUP4 KECCAK256 PUSH1 0x1 PUSH1 0x1 PUSH1 0xA0 SHL SUB DUP7 AND DUP1 DUP6 MSTORE SWAP3 MSTORE DUP1 DUP4 KECCAK256 DUP1 SLOAD PUSH1 0xFF NOT AND SWAP1 SSTORE MLOAD CALLER SWAP3 DUP7 SWAP2 PUSH32 0xF6391F5C32D9C69D2A47EA670B442974B53935D1EDC7FD64EB21E047A839171B SWAP2 SWAP1 LOG4 POP PUSH1 0x1 PUSH2 0x2F9 JUMP JUMPDEST PUSH2 0xC54 DUP3 DUP3 PUSH2 0x8FF JUMP JUMPDEST PUSH2 0x8FB JUMPI PUSH1 0x40 MLOAD PUSH4 0xE2517D3F PUSH1 0xE0 SHL DUP2 MSTORE PUSH1 0x1 PUSH1 0x1 PUSH1 0xA0 SHL SUB DUP3 AND PUSH1 0x4 DUP3 ADD MSTORE PUSH1 0x24 DUP2 ADD DUP4 SWAP1 MSTORE PUSH1 0x44 ADD PUSH2 0x33D JUMP JUMPDEST PUSH1 0x0 PUSH1 0x20 DUP3 DUP5 SUB SLT ISZERO PUSH2 0xC95 JUMPI PUSH1 0x0 DUP1 REVERT JUMPDEST DUP2 CALLDATALOAD PUSH1 0x1 PUSH1 0x1 PUSH1 0xE0 SHL SUB NOT DUP2 AND DUP2 EQ PUSH2 0xCAD JUMPI PUSH1 0x0 DUP1 REVERT JUMPDEST SWAP4 SWAP3 POP POP POP JUMP JUMPDEST DUP1 CALLDATALOAD PUSH1 0x1 PUSH1 0x1 PUSH1 0xA0 SHL SUB DUP2 AND DUP2 EQ PUSH2 0xCCB JUMPI PUSH1 0x0 DUP1 REVERT JUMPDEST SWAP2 SWAP1 POP JUMP JUMPDEST PUSH1 0x0 PUSH1 0x20 DUP3 DUP5 SUB SLT ISZERO PUSH2 0xCE2 JUMPI PUSH1 0x0 DUP1 REVERT JUMPDEST PUSH2 0xCAD DUP3 PUSH2 0xCB4 JUMP JUMPDEST PUSH1 0x0 PUSH1 0x20 DUP3 DUP5 SUB SLT ISZERO PUSH2 0xCFD JUMPI PUSH1 0x0 DUP1 REVERT JUMPDEST POP CALLDATALOAD SWAP2 SWAP1 POP JUMP JUMPDEST PUSH1 0x0 DUP1 PUSH1 0x40 DUP4 DUP6 SUB SLT ISZERO PUSH2 0xD17 JUMPI PUSH1 0x0 DUP1 REVERT JUMPDEST DUP3 CALLDATALOAD SWAP2 POP PUSH2 0xD27 PUSH1 0x20 DUP5 ADD PUSH2 0xCB4 JUMP JUMPDEST SWAP1 POP SWAP3 POP SWAP3 SWAP1 POP JUMP JUMPDEST PUSH4 0x4E487B71 PUSH1 0xE0 SHL PUSH1 0x0 MSTORE PUSH1 0x21 PUSH1 0x4 MSTORE PUSH1 0x24 PUSH1 0x0 REVERT JUMPDEST DUP5 DUP2 MSTORE PUSH1 0x80 DUP2 ADD PUSH1 0x5 DUP6 LT PUSH2 0xD6B JUMPI PUSH4 0x4E487B71 PUSH1 0xE0 SHL PUSH1 0x0 MSTORE PUSH1 0x21 PUSH1 0x4 MSTORE PUSH1 0x24 PUSH1 0x0 REVERT JUMPDEST PUSH1 0x20 DUP3 ADD SWAP5 SWAP1 SWAP5 MSTORE PUSH1 0x1 PUSH1 0x1 PUSH1 0xA0 SHL SUB SWAP3 SWAP1 SWAP3 AND PUSH1 0x40 DUP4 ADD MSTORE PUSH8 0xFFFFFFFFFFFFFFFF AND PUSH1 0x60 SWAP1 SWAP2 ADD MSTORE SWAP2 SWAP1 POP JUMP JUMPDEST PUSH1 0x20 DUP1 DUP3 MSTORE PUSH1 0x14 SWAP1 DUP3 ADD MSTORE PUSH20 0x496E76616C696420757365722061646472657373 PUSH1 0x60 SHL PUSH1 0x40 DUP3 ADD MSTORE PUSH1 0x60 ADD SWAP1 JUMP INVALID 0xC 0xE2 EXTCODECOPY RETURNDATACOPY CODECOPY SWAP9 XOR 0xCF 0xEE DUP2 0xA7 0xAB ADDMOD DUP1 0xF7 EQ 0xE5 RETURNDATASIZE PUSH23 0x72B08DF0FA62F2843416E1EA09A2646970667358221220 SELFBALANCE SGT INVALID 0xB5 0xB2 0xAC 0x2E 0xB5 0xAD 0xD1 PUSH31 0x5AC04FC70BC6916657A110F345B0037E413FCBA73964736F6C634300081C00 CALLER "
        },
        "methodIdentifiers": {
          "DEFAULT_ADMIN_ROLE()": "a217fddf",
          "VERIFIER_ROLE()": "e7705db6",
          "addVerifier(address)": "9000b3d6",
          "getIdentityRecord(address)": "5ad0c0bf",
          "getRoleAdmin(bytes32)": "248a9ca3",
          "grantRole(bytes32,address)": "2f2ff15d",
          "hasRole(bytes32,address)": "91d14854",
          "identities(address)": "f653b81e",
          "isVerified(address)": "b9209e33",
          "registerIdentity(bytes32)": "103d9fae",
          "rejectIdentity(address)": "333415e2",
          "removeVerifier(address)": "ca2dfd0a",
          "renounceRole(bytes32,address)": "36568abe",
          "revokeIdentity(address)": "0ebddd17",
          "revokeRole(bytes32,address)": "d547741f",
          "supportsInterface(bytes4)": "01ffc9a7",
          "verifyIdentity(address)": "b5b90fd9"
        }
      }
    }
  }
}