{
  "_format": "hh-sol-artifact-1",
  "contractName": "KYCGatedAuction",
  "sourceName": "contracts/KYCGatedAuction.sol",
  "abi": [
    {
      "inputs": [
        {
          "internalType": "address",
          "name": "_verifier",
          "type": "address"
        },
        {
          "internalType": "address",
          "name": "_owner",
          "type": "address"
        }
      ],
      "stateMutability": "nonpayable",
      "type": "constructor"
    },
    {
      "inputs": [
        {
          "internalType": "address",
          "name": "owner",
          "type": "address"
        }
      ],
      "name": "OwnableInvalidOwner",
      "type": "error"
    },
    {
      "inputs": [
        {
          "internalType": "address",
          "name": "account",
          "type": "address"
        }
      ],
      "name": "OwnableUnauthorizedAccount",
      "type": "error"
    },
    {
      "inputs": [],
      "name": "ReentrancyGuardReentrantCall",
      "type": "error"
    },
    {
      "anonymous": false,
      "inputs": [
        {
          "indexed": true,
          "internalType": "address",
          "name": "winner",
          "type": "address"
        },
        {
          "indexed": false,
          "internalType": "uint256",
          "name": "amount",
          "type": "uint256"
        }
      ],
      "name": "AuctionEnded",
      "type": "event"
    },
    {
      "anonymous": false,
      "inputs": [
        {
          "indexed": true,
          "internalType": "address",
          "name": "bidder",
          "type": "address"
        },
        {
          "indexed": false,
          "internalType": "uint256",
          "name": "amount",
          "type": "uint256"
        }
      ],
      "name": "BidPlaced",
      "type": "event"
    },
    {
      "anonymous": false,
      "inputs": [
        {
          "indexed": true,
          "internalType": "address",
          "name": "previousOwner",
          "type": "address"
        },
        {
          "indexed": true,
          "internalType": "address",
          "name": "newOwner",
          "type": "address"
        }
      ],
      "name": "OwnershipTransferred",
      "type": "event"
    },
    {
      "anonymous": false,
      "inputs": [
        {
          "indexed": true,
          "internalType": "address",
          "name": "recipient",
          "type": "address"
        },
        {
          "indexed": false,
          "internalType": "uint256",
          "name": "amount",
          "type": "uint256"
        }
      ],
      "name": "ProceedsWithdrawn",
      "type": "event"
    },
    {
      "anonymous": false,
      "inputs": [
        {
          "indexed": true,
          "internalType": "address",
          "name": "bidder",
          "type": "address"
        },
        {
          "indexed": false,
          "internalType": "uint256",
          "name": "amount",
          "type": "uint256"
        }
      ],
      "name": "RefundWithdrawn",
      "type": "event"
    },
    {
      "inputs": [],
      "name": "endAuction",
      "outputs": [],
      "stateMutability": "nonpayable",
      "type": "function"
    },
    {
      "inputs": [],
      "name": "ended",
      "outputs": [
        {
          "internalType": "bool",
          "name": "",
          "type": "bool"
        }
      ],
      "stateMutability": "view",
      "type": "function"
    },
    {
      "inputs": [],
      "name": "highestBid",
      "outputs": [
        {
          "internalType": "uint256",
          "name": "",
          "type": "uint256"
        }
      ],
      "stateMutability": "view",
      "type": "function"
    },
    {
      "inputs": [],
      "name": "highestBidder",
      "outputs": [
        {
          "internalType": "address",
          "name": "",
          "type": "address"
        }
      ],
      "stateMutability": "view",
      "type": "function"
    },
    {
      "inputs": [],
      "name": "owner",
      "outputs": [
        {
          "internalType": "address",
          "name": "",
          "type": "address"
        }
      ],
      "stateMutability": "view",
      "type": "function"
    },
    {
      "inputs": [
        {
          "internalType": "address",
          "name": "",
          "type": "address"
        }
      ],
      "name": "pendingReturns",
      "outputs": [
        {
          "internalType": "uint256",
          "name": "",
          "type": "uint256"
        }
      ],
      "stateMutability": "view",
      "type": "function"
    },
    {
      "inputs": [],
      "name": "placeBid",
      "outputs": [],
      "stateMutability": "payable",
      "type": "function"
    },
    {
      "inputs": [],
      "name": "renounceOwnership",
      "outputs": [],
      "stateMutability": "nonpayable",
      "type": "function"
    },
    {
      "inputs": [
        {
          "internalType": "address",
          "name": "newOwner",
          "type": "address"
        }
      ],
      "name": "transferOwnership",
      "outputs": [],
      "stateMutability": "nonpayable",
      "type": "function"
    },
    {
      "inputs": [],
      "name": "verifier",
      "outputs": [
        {
          "internalType": "contract IIdentityVerifier",
          "name": "",
          "type": "address"
        }
      ],
      "stateMutability": "view",
      "type": "function"
    },
    {
      "inputs": [
        {
          "internalType": "address payable",
          "name": "recipient",
          "type": "address"
        }
      ],
      "name": "withdrawProceeds",
      "outputs": [],
      "stateMutability": "nonpayable",
      "type": "function"
    },
    {
      "inputs": [],
      "name": "withdrawRefund",
      "outputs": [],
      "stateMutability": "nonpayable",
      "type": "function"
    }
  ],
  "bytecode": "0x60a060405234801561001057600080fd5b50604051610bc9380380610bc983398101604081905261002f9161019a565b806001600160a01b03811661005f57604051631e4fbdf760e01b8152600060048201526024015b60405180910390fd5b6100688161012e565b5060017f9b779b17422d0df92223018b32b4d1fa46e071723d6817e2486d003becc55f00556001600160a01b0382166100d65760405162461bcd60e51b815260206004820152601060248201526f24b73b30b634b2103b32b934b334b2b960811b6044820152606401610056565b6001600160a01b03811661011c5760405162461bcd60e51b815260206004820152600d60248201526c24b73b30b634b21037bbb732b960991b6044820152606401610056565b506001600160a01b03166080526101cd565b600080546001600160a01b038381166001600160a01b0319831681178455604051919092169283917f8be0079c531659141344cd1fd0a4f28419497f9722a3daafe3b4186f6b6457e09190a35050565b80516001600160a01b038116811461019557600080fd5b919050565b600080604083850312156101ad57600080fd5b6101b68361017e565b91506101c46020840161017e565b90509250929050565b6080516109da6101ef6000396000818161013f015261057d01526109da6000f3fe6080604052600436106100a75760003560e01c80638da5cb5b116100645780638da5cb5b146101ae57806391f90157146101cc578063d57bde79146101ec578063ecfc7ecc14610202578063f2fde38b1461020a578063fe67a54b1461022a57600080fd5b8063110f8874146100ac57806312fa6feb146100c357806326b387bb146100f25780632b7ac3f31461012d57806362810c8114610179578063715018a614610199575b600080fd5b3480156100b857600080fd5b506100c161023f565b005b3480156100cf57600080fd5b506004546100dd9060ff1681565b60405190151581526020015b60405180910390f35b3480156100fe57600080fd5b5061011f61010d366004610917565b60036020526000908152604090205481565b6040519081526020016100e9565b34801561013957600080fd5b506101617f000000000000000000000000000000000000000000000000000000000000000081565b6040516001600160a01b0390911681526020016100e9565b34801561018557600080fd5b506100c1610194366004610917565b61037d565b3480156101a557600080fd5b506100c161054e565b3480156101ba57600080fd5b506000546001600160a01b0316610161565b3480156101d857600080fd5b50600154610161906001600160a01b031681565b3480156101f857600080fd5b5061011f60025481565b6100c1610560565b34801561021657600080fd5b506100c1610225366004610917565b61075e565b34801561023657600080fd5b506100c1610799565b610247610839565b33600090815260036020526040902054806102945760405162461bcd60e51b81526020600482015260086024820152674e6f2066756e647360c01b60448201526064015b60405180910390fd5b336000818152600360205260408082208290555190919083908381818185875af1925050503d80600081146102e5576040519150601f19603f3d011682016040523d82523d6000602084013e6102ea565b606091505b505090508061032d5760405162461bcd60e51b815260206004820152600f60248201526e151c985b9cd9995c8819985a5b1959608a1b604482015260640161028b565b60405182815233907f3d97f39b86d061200a7834082f5926e58ec10fd85a9d6930f497729d5e6cc35c9060200160405180910390a2505061037b600160008051602061098583398151915255565b565b610385610855565b61038d610839565b60045460ff166103d35760405162461bcd60e51b8152602060048201526011602482015270105d58dd1a5bdb881b9bdd08195b991959607a1b604482015260640161028b565b6001600160a01b03811661041d5760405162461bcd60e51b8152602060048201526011602482015270125b9d985b1a59081c9958da5c1a595b9d607a1b604482015260640161028b565b600254806104585760405162461bcd60e51b81526020600482015260086024820152674e6f2066756e647360c01b604482015260640161028b565b600060028190556040516001600160a01b0384169083908381818185875af1925050503d80600081146104a7576040519150601f19603f3d011682016040523d82523d6000602084013e6104ac565b606091505b50509050806104ef5760405162461bcd60e51b815260206004820152600f60248201526e151c985b9cd9995c8819985a5b1959608a1b604482015260640161028b565b826001600160a01b03167f0f2fb75cc1977a496e94837f859e957f68e26e70dc1b75d9945ee92ae57969ba8360405161052a91815260200190565b60405180910390a2505061054b600160008051602061098583398151915255565b50565b610556610855565b61037b6000610882565b610568610839565b60405163b9209e3360e01b81523360048201527f00000000000000000000000000000000000000000000000000000000000000006001600160a01b03169063b9209e3390602401602060405180830381865afa1580156105cc573d6000803e3d6000fd5b505050506040513d601f19601f820116820180604052508101906105f0919061093b565b61062b5760405162461bcd60e51b815260206004820152600c60248201526b12d650c81c995c5d5a5c995960a21b604482015260640161028b565b60045460ff16156106765760405162461bcd60e51b8152602060048201526015602482015274105d58dd1a5bdb88185b1c9958591e48195b991959605a1b604482015260640161028b565b60025434116106b55760405162461bcd60e51b815260206004820152600b60248201526a42696420746f6f206c6f7760a81b604482015260640161028b565b6001546001600160a01b0316156106f9576002546001546001600160a01b0316600090815260036020526040812080549091906106f390849061095d565b90915550505b600180546001600160a01b031916339081179091553460028190556040519081527f3fabff0a9c3ecd6814702e247fa9733e5d0aa69e3a38590f92cb18f623a2254d9060200160405180910390a261037b600160008051602061098583398151915255565b610766610855565b6001600160a01b03811661079057604051631e4fbdf760e01b81526000600482015260240161028b565b61054b81610882565b6107a1610855565b60045460ff16156107e45760405162461bcd60e51b815260206004820152600d60248201526c105b1c9958591e48195b991959609a1b604482015260640161028b565b6004805460ff19166001908117909155546002546040519081526001600160a01b03909116907fdaec4582d5d9595688c8c98545fdd1c696d41c6aeaeb636737e84ed2f5c00eda9060200160405180910390a2565b6108416108d2565b600260008051602061098583398151915255565b6000546001600160a01b0316331461037b5760405163118cdaa760e01b815233600482015260240161028b565b600080546001600160a01b038381166001600160a01b0319831681178455604051919092169283917f8be0079c531659141344cd1fd0a4f28419497f9722a3daafe3b4186f6b6457e09190a35050565b6000805160206109858339815191525460020361037b57604051633ee5aeb560e01b815260040160405180910390fd5b6001600160a01b038116811461054b57600080fd5b60006020828403121561092957600080fd5b813561093481610902565b9392505050565b60006020828403121561094d57600080fd5b8151801515811461093457600080fd5b8082018082111561097e57634e487b7160e01b600052601160045260246000fd5b9291505056fe9b779b17422d0df92223018b32b4d1fa46e071723d6817e2486d003becc55f00a26469706673582212209ddfee2488600ffe7be16eb95e1d8fd7db66b5b167207d5a63d1b5b2ac54823964736f6c634300081c0033",
  "linkReferences": {},
  "deployedLinkReferences": {}
}