{
  "_format": "hh-sol-artifact-1",
  "contractName": "IdentityVerifier",
  "sourceName": "contracts/IdentityVerifier.sol",
  "abi": [
    {
      "inputs": [],
      "stateMutability": "nonpayable",
      "type": "constructor"
    },
    {
      "inputs": [],
      "name": "AccessControlBadConfirmation",
      "type": "error"
    },
    {
      "inputs": [
        {
          "internalType": "address",
          "name": "account",
          "type": "address"
        },
        {
          "internalType": "bytes32",
          "name": "neededRole",
          "type": "bytes32"
        }
      ],
      "name": "AccessControlUnauthorizedAccount",
      "type": "error"
    },
    {
      "anonymous": false,
      "inputs": [
        {
          "indexed": true,
          "internalType": "address",
          "name": "user",
          "type": "address"
        },
        {
          "indexed": false,
          "internalType": "bytes32",
          "name": "document_hash",
          "type": "bytes32"
        }
      ],
      "name": "IdentityRegistered",
      "type": "event"
    },
    {
      "anonymous": false,
      "inputs": [
        {
          "indexed": true,
          "internalType": "address",
          "name": "user",
          "type": "address"
        },
        {
          "indexed": true,
          "internalType": "address",
          "name": "rejecter",
          "type": "address"
        }
      ],
      "name": "IdentityRejected",
      "type": "event"
    },
    {
      "anonymous": false,
      "inputs": [
        {
          "indexed": true,
          "internalType": "address",
          "name": "user",
          "type": "address"
        },
        {
          "indexed": true,
          "internalType": "address",
          "name": "revoker",
          "type": "address"
        }
      ],
      "name": "IdentityRevoked",
      "type": "event"
    },
    {
      "anonymous": false,
      "inputs": [
        {
          "indexed": true,
          "internalType": "address",
          "name": "user",
          "type": "address"
        },
        {
          "indexed": true,
          "internalType": "address",
          "name": "verifier",
          "type": "address"
        }
      ],
      "name": "IdentityVerified",
      "type": "event"
    },
    {
      "anonymous": false,
      "inputs": [
        {
          "indexed": true,
          "internalType": "bytes32",
          "name": "role",
          "type": "bytes32"
        },
        {
          "indexed": true,
          "internalType": "bytes32",
          "name": "previousAdminRole",
          "type": "bytes32"
        },
        {
          "indexed": true,
          "internalType": "bytes32",
          "name": "newAdminRole",
          "type": "bytes32"
        }
      ],
      "name": "RoleAdminChanged",
      "type": "event"
    },
    {
      "anonymous": false,
      "inputs": [
        {
          "indexed": true,
          "internalType": "bytes32",
          "name": "role",
          "type": "bytes32"
        },
        {
          "indexed": true,
          "internalType": "address",
          "name": "account",
          "type": "address"
        },
        {
          "indexed": true,
          "internalType": "address",
          "name": "sender",
          "type": "address"
        }
      ],
      "name": "RoleGranted",
      "type": "event"
    },
    {
      "anonymous": false,
      "inputs": [
        {
          "indexed": true,
          "internalType": "bytes32",
          "name": "role",
          "type": "bytes32"
        },
        {
          "indexed": true,
          "internalType": "address",
          "name": "account",
          "type": "address"
        },
        {
          "indexed": true,
          "internalType": "address",
          "name": "sender",
          "type": "address"
        }
      ],
      "name": "RoleRevoked",
      "type": "event"
    },
    {
      "inputs": [],
      "name": "DEFAULT_ADMIN_ROLE",
      "outputs": [
        {
          "internalType": "bytes32",
          "name": "",
          "type": "bytes32"
        }
      ],
      "stateMutability": "view",
      "type": "function"
    },
    {
      "inputs": [],
      "name": "VERIFIER_ROLE",
      "outputs": [
        {
          "internalType": "bytes32",
          "name": "",
          "type": "bytes32"
        }
      ],
      "stateMutability": "view",
      "type": "function"
    },
    {
      "inputs": [
        {
          "internalType": "address",
          "name": "_verifier",
          "type": "address"
        }
      ],
      "name": "addVerifier",
      "outputs": [],
      "stateMutability": "nonpayable",
      "type": "function"
    },
    {
      "inputs": [
        {
          "internalType": "address",
          "name": "_user",
          "type": "address"
        }
      ],
      "name": "getIdentityRecord",
      "outputs": [
        {
          "internalType": "bytes32",
          "name": "documentHash",
          "type": "bytes32"
        },
        {
          "internalType": "enum IdentityVerifier.Status",
          "name": "status",
          "type": "uint8"
        },
        {
          "internalType": "address",
          "name": "verifiedBy",
          "type": "address"
        },
        {
          "internalType": "uint64",
          "name": "timestamp",
          "type": "uint64"
        }
      ],
      "stateMutability": "view",
      "type": "function"
    },
    {
      "inputs": [
        {
          "internalType": "bytes32",
          "name": "role",
          "type": "bytes32"
        }
      ],
      "name": "getRoleAdmin",
      "outputs": [
        {
          "internalType": "bytes32",
          "name": "",
          "type": "bytes32"
        }
      ],
      "stateMutability": "view",
      "type": "function"
    },
    {
      "inputs": [
        {
          "internalType": "bytes32",
          "name": "role",
          "type": "bytes32"
        },
        {
          "internalType": "address",
          "name": "account",
          "type": "address"
        }
      ],
      "name": "grantRole",
      "outputs": [],
      "stateMutability": "nonpayable",
      "type": "function"
    },
    {
      "inputs": [
        {
          "internalType": "bytes32",
          "name": "role",
          "type": "bytes32"
        },
        {
          "internalType": "address",
          "name": "account",
          "type": "address"
        }
      ],
      "name": "hasRole",
      "outputs": [
        {
          "internalType": "bool",
          "name": "",
          "type": "bool"
        }
      ],
      "stateMutability": "view",
      "type": "function"
    },
    {
      "inputs": [
        {
          "internalType": "address",
          "name": "",
          "type": "address"
        }
      ],
      "name": "identities",
      "outputs": [
        {
          "internalType": "bytes32",
          "name": "document_hash",
          "type": "bytes32"
        },
        {
          "internalType": "enum IdentityVerifier.Status",
          "name": "status",
          "type": "uint8"
        },
        {
          "internalType": "address",
          "name": "verified_by",
          "type": "address"
        },
        {
          "internalType": "uint64",
          "name": "timestamp",
          "type": "uint64"
        }
      ],
      "stateMutability": "view",
      "type": "function"
    },
    {
      "inputs": [
        {
          "internalType": "address",
          "name": "_user",
          "type": "address"
        }
      ],
      "name": "isVerified",
      "outputs": [
        {
          "internalType": "bool",
          "name": "",
          "type": "bool"
        }
      ],
      "stateMutability": "view",
      "type": "function"
    },
    {
      "inputs": [
        {
          "internalType": "bytes32",
          "name": "_document_hash",
          "type": "bytes32"
        }
      ],
      "name": "registerIdentity",
      "outputs": [],
      "stateMutability": "nonpayable",
      "type": "function"
    },
    {
      "inputs": [
        {
          "internalType": "address",
          "name": "_user",
          "type": "address"
        }
      ],
      "name": "rejectIdentity",
      "outputs": [],
      "stateMutability": "nonpayable",
      "type": "function"
    },
    {
      "inputs": [
        {
          "internalType": "address",
          "name": "_verifier",
          "type": "address"
        }
      ],
      "name": "removeVerifier",
      "outputs": [],
      "stateMutability": "nonpayable",
      "type": "function"
    },
    {
      "inputs": [
        {
          "internalType": "bytes32",
          "name": "role",
          "type": "bytes32"
        },
        {
          "internalType": "address",
          "name": "callerConfirmation",
          "type": "address"
        }
      ],
      "name": "renounceRole",
      "outputs": [],
      "stateMutability": "nonpayable",
      "type": "function"
    },
    {
      "inputs": [
        {
          "internalType": "address",
          "name": "_user",
          "type": "address"
        }
      ],
      "name": "revokeIdentity",
      "outputs": [],
      "stateMutability": "nonpayable",
      "type": "function"
    },
    {
      "inputs": [
        {
          "internalType": "bytes32",
          "name": "role",
          "type": "bytes32"
        },
        {
          "internalType": "address",
          "name": "account",
          "type": "address"
        }
      ],
      "name": "revokeRole",
      "outputs": [],
      "stateMutability": "nonpayable",
      "type": "function"
    },
    {
      "inputs": [
        {
          "internalType": "bytes4",
          "name": "interfaceId",
          "type": "bytes4"
        }
      ],
      "name": "supportsInterface",
      "outputs": [
        {
          "internalType": "bool",
          "name": "",
          "type": "bool"
        }
      ],
      "stateMutability": "view",
      "type": "function"
    },
    {
      "inputs": [
        {
          "internalType": "address",
          "name": "_user",
          "type": "address"
        }
      ],
      "name": "verifyIdentity",
      "outputs": [],
      "stateMutability": "nonpayable",
      "type": "function"
    }
  ],
  "bytecode": "0x6080604052348015600f57600080fd5b506019600033601e565b5060c7565b6000828152602081815260408083206001600160a01b038516845290915281205460ff1660bd576000838152602081815260408083206001600160a01b03861684529091529020805460ff1916600117905560763390565b6001600160a01b0316826001600160a01b0316847f2f8788117e7eff1d82e926ec794901d17c78024a50270940304540a733656f0d60405160405180910390a450600160c1565b5060005b92915050565b610d09806100d66000396000f3fe608060405234801561001057600080fd5b50600436106101005760003560e01c806391d1485411610097578063ca2dfd0a11610066578063ca2dfd0a14610223578063d547741f14610236578063e7705db614610249578063f653b81e1461025e57600080fd5b806391d14854146101e2578063a217fddf146101f5578063b5b90fd9146101fd578063b9209e331461021057600080fd5b80632f2ff15d116100d35780632f2ff15d1461018657806336568abe146101995780635ad0c0bf146101ac5780639000b3d6146101cf57600080fd5b806301ffc9a7146101055780630ebddd171461012d578063103d9fae14610142578063248a9ca314610155575b600080fd5b610118610113366004610b9d565b6102aa565b60405190151581526020015b60405180910390f35b61014061013b366004610bea565b6102e1565b005b610140610150366004610c05565b61046c565b610178610163366004610c05565b60009081526020819052604090206001015490565b604051908152602001610124565b610140610194366004610c1e565b61065f565b6101406101a7366004610c1e565b61068a565b6101bf6101ba366004610bea565b6106c2565b6040516101249493929190610c60565b6101406101dd366004610bea565b61077a565b6101186101f0366004610c1e565b6107f2565b610178600081565b61014061020b366004610bea565b61081b565b61011861021e366004610bea565b61098b565b610140610231366004610bea565b6109c5565b610140610244366004610c1e565b610a35565b610178600080516020610cb483398151915281565b6101bf61026c366004610bea565b6001602081905260009182526040909120805491015460ff81169061010081046001600160a01b031690600160a81b900467ffffffffffffffff1684565b60006001600160e01b03198216637965db0b60e01b14806102db57506301ffc9a760e01b6001600160e01b03198316145b92915050565b600080516020610cb48339815191526102f981610a5a565b6001600160a01b03821661034b5760405162461bcd60e51b8152602060048201526014602482015273496e76616c69642075736572206164647265737360601b60448201526064015b60405180910390fd5b60026001600160a01b0383166000908152600160208190526040909120015460ff16600381111561037e5761037e610c4a565b14806103ba575060016001600160a01b0383166000908152600160208190526040909120015460ff1660038111156103b8576103b8610c4a565b145b6104185760405162461bcd60e51b815260206004820152602960248201527f43616e206f6e6c79207265766f6b65205665726966696564206f722050656e64604482015268696e6720757365727360b81b6064820152608401610342565b6001600160a01b0382166000818152600160208190526040808320909101805460ff19166003179055513392917fd7533bea9fdce549b772c9bf708932fcf1560edaa0c94df3f90e65e75eb7565791a35050565b60008190036104b45760405162461bcd60e51b8152602060048201526014602482015273486173682063616e6e6f7420626520656d70747960601b6044820152606401610342565b3360009081526001602081905260408220015460ff1660038111156104db576104db610c4a565b148061050e57506003336000908152600160208190526040909120015460ff16600381111561050c5761050c610c4a565b145b6105695760405162461bcd60e51b815260206004820152602660248201527f4964656e7469747920616c72656164792072656769737465726564206f722070604482015265656e64696e6760d01b6064820152608401610342565b60408051608081018252828152600160208083018281526000848601819052606085018190523381529183905293902082518155925183820180549394939192909160ff1916908360038111156105c2576105c2610c4a565b02179055506040828101516001909201805460609094015167ffffffffffffffff16600160a81b0267ffffffffffffffff60a81b196001600160a01b039094166101000293909316610100600160e81b031990941693909317919091179091555133907f209ae2eb4ff1890ce972a80ec3e167b52d41ab089135cc6430447b1430e824be906106549084815260200190565b60405180910390a250565b60008281526020819052604090206001015461067a81610a5a565b6106848383610a67565b50505050565b6001600160a01b03811633146106b35760405163334bd91960e11b815260040160405180910390fd5b6106bd8282610af9565b505050565b6001600160a01b03811660009081526001602081815260408084208151608081019092528054825292830154849384938493849390929183019060ff16600381111561071057610710610c4a565b600381111561072157610721610c4a565b81526001919091015461010081046001600160a01b0316602080840191909152600160a81b90910467ffffffffffffffff1660409283015282519083015191830151606090930151909991985091965090945092505050565b600061078581610a5a565b6001600160a01b0382166107d65760405162461bcd60e51b8152602060048201526018602482015277496e76616c6964207665726966696572206164647265737360401b6044820152606401610342565b6107ee600080516020610cb48339815191528361065f565b5050565b6000918252602082815260408084206001600160a01b0393909316845291905290205460ff1690565b600080516020610cb483398151915261083381610a5a565b6001600160a01b0382166108805760405162461bcd60e51b8152602060048201526014602482015273496e76616c69642075736572206164647265737360601b6044820152606401610342565b60016001600160a01b0383166000908152600160208190526040909120015460ff1660038111156108b3576108b3610c4a565b146109005760405162461bcd60e51b815260206004820152601d60248201527f55736572206973206e6f7420696e2050656e64696e67207374617475730000006044820152606401610342565b6001600160a01b0382166000818152600160208190526040808320909101805460026001600160e81b031990911633610100810267ffffffffffffffff60a81b191691909117600160a81b4267ffffffffffffffff1602179190911790915590519092917f25e4589528aa4c1dcd5c91ab0cc06e99d962229fb9e54162702032772a1655a091a35050565b6001600160a01b03811660009081526001602081905260408220015460029060ff1660038111156109be576109be610c4a565b1492915050565b60006109d081610a5a565b6001600160a01b038216610a215760405162461bcd60e51b8152602060048201526018602482015277496e76616c6964207665726966696572206164647265737360401b6044820152606401610342565b6107ee600080516020610cb4833981519152835b600082815260208190526040902060010154610a5081610a5a565b6106848383610af9565b610a648133610b64565b50565b6000610a7383836107f2565b610af1576000838152602081815260408083206001600160a01b03861684529091529020805460ff19166001179055610aa93390565b6001600160a01b0316826001600160a01b0316847f2f8788117e7eff1d82e926ec794901d17c78024a50270940304540a733656f0d60405160405180910390a45060016102db565b5060006102db565b6000610b0583836107f2565b15610af1576000838152602081815260408083206001600160a01b0386168085529252808320805460ff1916905551339286917ff6391f5c32d9c69d2a47ea670b442974b53935d1edc7fd64eb21e047a839171b9190a45060016102db565b610b6e82826107f2565b6107ee5760405163e2517d3f60e01b81526001600160a01b038216600482015260248101839052604401610342565b600060208284031215610baf57600080fd5b81356001600160e01b031981168114610bc757600080fd5b9392505050565b80356001600160a01b0381168114610be557600080fd5b919050565b600060208284031215610bfc57600080fd5b610bc782610bce565b600060208284031215610c1757600080fd5b5035919050565b60008060408385031215610c3157600080fd5b82359150610c4160208401610bce565b90509250929050565b634e487b7160e01b600052602160045260246000fd5b8481526080810160048510610c8557634e487b7160e01b600052602160045260246000fd5b60208201949094526001600160a01b0392909216604083015267ffffffffffffffff1660609091015291905056fe0ce23c3e399818cfee81a7ab0880f714e53d7672b08df0fa62f2843416e1ea09a2646970667358221220331130560fc4782476ba385bd7289f1d4cbb2d9fe0ca4f10dac19b550589908364736f6c634300081c0033",
  "linkReferences": {},
  "deployedLinkReferences": {}
}