{
  "_format": "hh-sol-artifact-1",
  "contractName": "IdentityVerifier",
  "sourceName": "contracts/IdentityVerifier.sol",
  "abi": [
    {
      "inputs": [],
      "stateMutability": "nonpayable",
      "type": "constructor"
    },
    {
      "inputs": [],
      "name": "AccessControlBadConfirmation",
      "type": "error"
    },
    {
      "inputs": [
        {
          "internalType": "address",
          "name": "account",
          "type": "address"
        },
        {
          "internalType": "bytes32",
          "name": "neededRole",
          "type": "bytes32"
        }
      ],
      "name": "AccessControlUnauthorizedAccount",
      "type": "error"
    },
    {
      "anonymous": false,
      "inputs": [
        {
          "indexed": true,
          "internalType": "address",
          "name": "user",
          "type": "address"
        },
        {
          "indexed": false,
          "internalType": "bytes32",
          "name": "document_hash",
          "type": "bytes32"
        }
      ],
      "name": "IdentityRegistered",
      "type": "event"
    },
    {
      "anonymous": false,
      "inputs": [
        {
          "indexed": true,
          "internalType": "address",
          "name": "user",
          "type": "address"
        },
        {
          "indexed": true,
          "internalType": "address",
          "name": "rejecter",
          "type": "address"
        }
      ],
      "name": "IdentityRejected",
      "type": "event"
    },
    {
      "anonymous": false,
      "inputs": [
        {
          "indexed": true,
          "internalType": "address",
          "name": "user",
          "type": "address"
        },
        {
          "indexed": true,
          "internalType": "address",
          "name": "revoker",
          "type": "address"
        }
      ],
      "name": "IdentityRevoked",
      "type": "event"
    },
    {
      "anonymous": false,
      "inputs": [
        {
          "indexed": true,
          "internalType": "address",
          "name": "user",
          "type": "address"
        },
        {
          "indexed": true,
          "internalType": "address",
          "name": "verifier",
          "type": "address"
        }
      ],
      "name": "IdentityVerified",
      "type": "event"
    },
    {
      "anonymous": false,
      "inputs": [
        {
          "indexed": true,
          "internalType": "bytes32",
          "name": "role",
          "type": "bytes32"
        },
        {
          "indexed": true,
          "internalType": "bytes32",
          "name": "previousAdminRole",
          "type": "bytes32"
        },
        {
          "indexed": true,
          "internalType": "bytes32",
          "name": "newAdminRole",
          "type": "bytes32"
        }
      ],
      "name": "RoleAdminChanged",
      "type": "event"
    },
    {
      "anonymous": false,
      "inputs": [
        {
          "indexed": true,
          "internalType": "bytes32",
          "name": "role",
          "type": "bytes32"
        },
        {
          "indexed": true,
          "internalType": "address",
          "name": "account",
          "type": "address"
        },
        {
          "indexed": true,
          "internalType": "address",
          "name": "sender",
          "type": "address"
        }
      ],
      "name": "RoleGranted",
      "type": "event"
    },
    {
      "anonymous": false,
      "inputs": [
        {
          "indexed": true,
          "internalType": "bytes32",
          "name": "role",
          "type": "bytes32"
        },
        {
          "indexed": true,
          "internalType": "address",
          "name": "account",
          "type": "address"
        },
        {
          "indexed": true,
          "internalType": "address",
          "name": "sender",
          "type": "address"
        }
      ],
      "name": "RoleRevoked",
      "type": "event"
    },
    {
      "inputs": [],
      "name": "DEFAULT_ADMIN_ROLE",
      "outputs": [
        {
          "internalType": "bytes32",
          "name": "",
          "type": "bytes32"
        }
      ],
      "stateMutability": "view",
      "type": "function"
    },
    {
      "inputs": [],
      "name": "VERIFIER_ROLE",
      "outputs": [
        {
          "internalType": "bytes32",
          "name": "",
          "type": "bytes32"
        }
      ],
      "stateMutability": "view",
      "type": "function"
    },
    {
      "inputs": [
        {
          "internalType": "address",
          "name": "_verifier",
          "type": "address"
        }
      ],
      "name": "addVerifier",
      "outputs": [],
      "stateMutability": "nonpayable",
      "type": "function"
    },
    {
      "inputs": [
        {
          "internalType": "address",
          "name": "_user",
          "type": "address"
        }
      ],
      "name": "getIdentityRecord",
      "outputs": [
        {
          "internalType": "bytes32",
          "name": "documentHash",
          "type": "bytes32"
        },
        {
          "internalType": "enum IdentityVerifier.Status",
          "name": "status",
          "type": "uint8"
        },
        {
          "internalType": "address",
          "name": "verifiedBy",
          "type": "address"
        },
        {
          "internalType": "uint64",
          "name": "timestamp",
          "type": "uint64"
        }
      ],
      "stateMutability": "view",
      "type": "function"
    },
    {
      "inputs": [
        {
          "internalType": "bytes32",
          "name": "role",
          "type": "bytes32"
        }
      ],
      "name": "getRoleAdmin",
      "outputs": [
        {
          "internalType": "bytes32",
          "name": "",
          "type": "bytes32"
        }
      ],
      "stateMutability": "view",
      "type": "function"
    },
    {
      "inputs": [
        {
          "internalType": "bytes32",
          "name": "role",
          "type": "bytes32"
        },
        {
          "internalType": "address",
          "name": "account",
          "type": "address"
        }
      ],
      "name": "grantRole",
      "outputs": [],
      "stateMutability": "nonpayable",
      "type": "function"
    },
    {
      "inputs": [
        {
          "internalType": "bytes32",
          "name": "role",
          "type": "bytes32"
        },
        {
          "internalType": "address",
          "name": "account",
          "type": "address"
        }
      ],
      "name": "hasRole",
      "outputs": [
        {
          "internalType": "bool",
          "name": "",
          "type": "bool"
        }
      ],
      "stateMutability": "view",
      "type": "function"
    },
    {
      "inputs": [
        {
          "internalType": "address",
          "name": "",
          "type": "address"
        }
      ],
      "name": "identities",
      "outputs": [
        {
          "internalType": "bytes32",
          "name": "document_hash",
          "type": "bytes32"
        },
        {
          "internalType": "enum IdentityVerifier.Status",
          "name": "status",
          "type": "uint8"
        },
        {
          "internalType": "address",
          "name": "verified_by",
          "type": "address"
        },
        {
          "internalType": "uint64",
          "name": "timestamp",
          "type": "uint64"
        }
      ],
      "stateMutability": "view",
      "type": "function"
    },
    {
      "inputs": [
        {
          "internalType": "address",
          "name": "_user",
          "type": "address"
        }
      ],
      "name": "isVerified",
      "outputs": [
        {
          "internalType": "bool",
          "name": "",
          "type": "bool"
        }
      ],
      "stateMutability": "view",
      "type": "function"
    },
    {
      "inputs": [
        {
          "internalType": "bytes32",
          "name": "_document_hash",
          "type": "bytes32"
        }
      ],
      "name": "registerIdentity",
      "outputs": [],
      "stateMutability": "nonpayable",
      "type": "function"
    },
    {
      "inputs": [
        {
          "internalType": "address",
          "name": "_user",
          "type": "address"
        }
      ],
      "name": "rejectIdentity",
      "outputs": [],
      "stateMutability": "nonpayable",
      "type": "function"
    },
    {
      "inputs": [
        {
          "internalType": "address",
          "name": "_verifier",
          "type": "address"
        }
      ],
      "name": "removeVerifier",
      "outputs": [],
      "stateMutability": "nonpayable",
      "type": "function"
    },
    {
      "inputs": [
        {
          "internalType": "bytes32",
          "name": "role",
          "type": "bytes32"
        },
        {
          "internalType": "address",
          "name": "callerConfirmation",
          "type": "address"
        }
      ],
      "name": "renounceRole",
      "outputs": [],
      "stateMutability": "nonpayable",
      "type": "function"
    },
    {
      "inputs": [
        {
          "internalType": "address",
          "name": "_user",
          "type": "address"
        }
      ],
      "name": "revokeIdentity",
      "outputs": [],
      "stateMutability": "nonpayable",
      "type": "function"
    },
    {
      "inputs": [
        {
          "internalType": "bytes32",
          "name": "role",
          "type": "bytes32"
        },
        {
          "internalType": "address",
          "name": "account",
          "type": "address"
        }
      ],
      "name": "revokeRole",
      "outputs": [],
      "stateMutability": "nonpayable",
      "type": "function"
    },
    {
      "inputs": [
        {
          "internalType": "bytes4",
          "name": "interfaceId",
          "type": "bytes4"
        }
      ],
      "name": "supportsInterface",
      "outputs": [
        {
          "internalType": "bool",
          "name": "",
          "type": "bool"
        }
      ],
      "stateMutability": "view",
      "type": "function"
    },
    {
      "inputs": [
        {
          "internalType": "address",
          "name": "_user",
          "type": "address"
        }
      ],
      "name": "verifyIdentity",
      "outputs": [],
      "stateMutability": "nonpayable",
      "type": "function"
    }
  ],
  "bytecode": "0x6080604052348015600f57600080fd5b506019600033601e565b5060c7565b6000828152602081815260408083206001600160a01b038516845290915281205460ff1660bd576000838152602081815260408083206001600160a01b03861684529091529020805460ff1916600117905560763390565b6001600160a01b0316826001600160a01b0316847f2f8788117e7eff1d82e926ec794901d17c78024a50270940304540a733656f0d60405160405180910390a450600160c1565b5060005b92915050565b610e1d806100d66000396000f3fe608060405234801561001057600080fd5b506004361061010b5760003560e01c80639000b3d6116100a2578063b9209e3311610071578063b9209e331461022e578063ca2dfd0a14610241578063d547741f14610254578063e7705db614610267578063f653b81e1461027c57600080fd5b80639000b3d6146101ed57806391d1485414610200578063a217fddf14610213578063b5b90fd91461021b57600080fd5b80632f2ff15d116100de5780632f2ff15d14610191578063333415e2146101a457806336568abe146101b75780635ad0c0bf146101ca57600080fd5b806301ffc9a7146101105780630ebddd1714610138578063103d9fae1461014d578063248a9ca314610160575b600080fd5b61012361011e366004610c83565b6102c8565b60405190151581526020015b60405180910390f35b61014b610146366004610cd0565b6102ff565b005b61014b61015b366004610ceb565b610467565b61018361016e366004610ceb565b60009081526020819052604090206001015490565b60405190815260200161012f565b61014b61019f366004610d04565b61065a565b61014b6101b2366004610cd0565b610685565b61014b6101c5366004610d04565b610797565b6101dd6101d8366004610cd0565b6107cf565b60405161012f9493929190610d46565b61014b6101fb366004610cd0565b610887565b61012361020e366004610d04565b6108ff565b610183600081565b61014b610229366004610cd0565b610928565b61012361023c366004610cd0565b610a71565b61014b61024f366004610cd0565b610aab565b61014b610262366004610d04565b610b1b565b610183600080516020610dc883398151915281565b6101dd61028a366004610cd0565b6001602081905260009182526040909120805491015460ff81169061010081046001600160a01b031690600160a81b900467ffffffffffffffff1684565b60006001600160e01b03198216637965db0b60e01b14806102f957506301ffc9a760e01b6001600160e01b03198316145b92915050565b600080516020610dc883398151915261031781610b40565b6001600160a01b0382166103465760405162461bcd60e51b815260040161033d90610d99565b60405180910390fd5b60026001600160a01b0383166000908152600160208190526040909120015460ff16600481111561037957610379610d30565b14806103b5575060016001600160a01b0383166000908152600160208190526040909120015460ff1660048111156103b3576103b3610d30565b145b6104135760405162461bcd60e51b815260206004820152602960248201527f43616e206f6e6c79207265766f6b65205665726966696564206f722050656e64604482015268696e6720757365727360b81b606482015260840161033d565b6001600160a01b0382166000818152600160208190526040808320909101805460ff19166003179055513392917fd7533bea9fdce549b772c9bf708932fcf1560edaa0c94df3f90e65e75eb7565791a35050565b60008190036104af5760405162461bcd60e51b8152602060048201526014602482015273486173682063616e6e6f7420626520656d70747960601b604482015260640161033d565b3360009081526001602081905260408220015460ff1660048111156104d6576104d6610d30565b148061050957506003336000908152600160208190526040909120015460ff16600481111561050757610507610d30565b145b6105645760405162461bcd60e51b815260206004820152602660248201527f4964656e7469747920616c72656164792072656769737465726564206f722070604482015265656e64696e6760d01b606482015260840161033d565b60408051608081018252828152600160208083018281526000848601819052606085018190523381529183905293902082518155925183820180549394939192909160ff1916908360048111156105bd576105bd610d30565b02179055506040828101516001909201805460609094015167ffffffffffffffff16600160a81b0267ffffffffffffffff60a81b196001600160a01b039094166101000293909316610100600160e81b031990941693909317919091179091555133907f209ae2eb4ff1890ce972a80ec3e167b52d41ab089135cc6430447b1430e824be9061064f9084815260200190565b60405180910390a250565b60008281526020819052604090206001015461067581610b40565b61067f8383610b4d565b50505050565b600080516020610dc883398151915261069d81610b40565b6001600160a01b0382166106c35760405162461bcd60e51b815260040161033d90610d99565b60016001600160a01b0383166000908152600160208190526040909120015460ff1660048111156106f6576106f6610d30565b146107435760405162461bcd60e51b815260206004820152601d60248201527f43616e206f6e6c792072656a6563742050656e64696e67207573657273000000604482015260640161033d565b6001600160a01b0382166000818152600160208190526040808320909101805460ff19166004179055513392917f52a850a224a7b0be57066372d4d888fc05800957baa5565f7c0478d951a174ba91a35050565b6001600160a01b03811633146107c05760405163334bd91960e11b815260040160405180910390fd5b6107ca8282610bdf565b505050565b6001600160a01b03811660009081526001602081815260408084208151608081019092528054825292830154849384938493849390929183019060ff16600481111561081d5761081d610d30565b600481111561082e5761082e610d30565b81526001919091015461010081046001600160a01b0316602080840191909152600160a81b90910467ffffffffffffffff1660409283015282519083015191830151606090930151909991985091965090945092505050565b600061089281610b40565b6001600160a01b0382166108e35760405162461bcd60e51b8152602060048201526018602482015277496e76616c6964207665726966696572206164647265737360401b604482015260640161033d565b6108fb600080516020610dc88339815191528361065a565b5050565b6000918252602082815260408084206001600160a01b0393909316845291905290205460ff1690565b600080516020610dc883398151915261094081610b40565b6001600160a01b0382166109665760405162461bcd60e51b815260040161033d90610d99565b60016001600160a01b0383166000908152600160208190526040909120015460ff16600481111561099957610999610d30565b146109e65760405162461bcd60e51b815260206004820152601d60248201527f55736572206973206e6f7420696e2050656e64696e6720737461747573000000604482015260640161033d565b6001600160a01b0382166000818152600160208190526040808320909101805460026001600160e81b031990911633610100810267ffffffffffffffff60a81b191691909117600160a81b4267ffffffffffffffff1602179190911790915590519092917f25e4589528aa4c1dcd5c91ab0cc06e99d962229fb9e54162702032772a1655a091a35050565b6001600160a01b03811660009081526001602081905260408220015460029060ff166004811115610aa457610aa4610d30565b1492915050565b6000610ab681610b40565b6001600160a01b038216610b075760405162461bcd60e51b8152602060048201526018602482015277496e76616c6964207665726966696572206164647265737360401b604482015260640161033d565b6108fb600080516020610dc8833981519152835b600082815260208190526040902060010154610b3681610b40565b61067f8383610bdf565b610b4a8133610c4a565b50565b6000610b5983836108ff565b610bd7576000838152602081815260408083206001600160a01b03861684529091529020805460ff19166001179055610b8f3390565b6001600160a01b0316826001600160a01b0316847f2f8788117e7eff1d82e926ec794901d17c78024a50270940304540a733656f0d60405160405180910390a45060016102f9565b5060006102f9565b6000610beb83836108ff565b15610bd7576000838152602081815260408083206001600160a01b0386168085529252808320805460ff1916905551339286917ff6391f5c32d9c69d2a47ea670b442974b53935d1edc7fd64eb21e047a839171b9190a45060016102f9565b610c5482826108ff565b6108fb5760405163e2517d3f60e01b81526001600160a01b03821660048201526024810183905260440161033d565b600060208284031215610c9557600080fd5b81356001600160e01b031981168114610cad57600080fd5b9392505050565b80356001600160a01b0381168114610ccb57600080fd5b919050565b600060208284031215610ce257600080fd5b610cad82610cb4565b600060208284031215610cfd57600080fd5b5035919050565b60008060408385031215610d1757600080fd5b82359150610d2760208401610cb4565b90509250929050565b634e487b7160e01b600052602160045260246000fd5b8481526080810160058510610d6b57634e487b7160e01b600052602160045260246000fd5b60208201949094526001600160a01b0392909216604083015267ffffffffffffffff16606090910152919050565b602080825260149082015273496e76616c69642075736572206164647265737360601b60408201526060019056fe0ce23c3e399818cfee81a7ab0880f714e53d7672b08df0fa62f2843416e1ea09a2646970667358221220593122f5d462db6ca1674f70c4f63ee3e65873269a94435e0c57651ccd776ce664736f6c634300081c0033",
  "linkReferences": {},
  "deployedLinkReferences": {}
}