{
  "_format": "hh-sol-artifact-1",
  "contractName": "IdentityVerifier",
  "sourceName": "contracts/IdentityVerifier.sol",
  "abi": [
    {
      "inputs": [],
      "stateMutability": "nonpayable",
      "type": "constructor"
    },
    {
      "inputs": [],
      "name": "AccessControlBadConfirmation",
      "type": "error"
    },
    {
      "inputs": [
        {
          "internalType": "address",
          "name": "account",
          "type": "address"
        },
        {
          "internalType": "bytes32",
          "name": "neededRole",
          "type": "bytes32"
        }
      ],
      "name": "AccessControlUnauthorizedAccount",
      "type": "error"
    },
    {
      "anonymous": false,
      "inputs": [
        {
          "indexed": true,
          "internalType": "address",
          "name": "user",
          "type": "address"
        },
        {
          "indexed": false,
          "internalType": "bytes32",
          "name": "document_hash",
          "type": "bytes32"
        }
      ],
      "name": "IdentityRegistered",
      "type": "event"
    },
    {
      "anonymous": false,
      "inputs": [
        {
          "indexed": true,
          "internalType": "address",
          "name": "user",
          "type": "address"
        },
        {
          "indexed": true,
          "internalType": "address",
          "name": "revoker",
          "type": "address"
        }
      ],
      "name": "IdentityRevoked",
      "type": "event"
    },
    {
      "anonymous": false,
      "inputs": [
        {
          "indexed": true,
          "internalType": "address",
          "name": "user",
          "type": "address"
        },
        {
          "indexed": true,
          "internalType": "address",
          "name": "verifier",
          "type": "address"
        }
      ],
      "name": "IdentityVerified",
      "type": "event"
    },
    {
      "anonymous": false,
      "inputs": [
        {
          "indexed": true,
          "internalType": "bytes32",
          "name": "role",
          "type": "bytes32"
        },
        {
          "indexed": true,
          "internalType": "bytes32",
          "name": "previousAdminRole",
          "type": "bytes32"
        },
        {
          "indexed": true,
          "internalType": "bytes32",
          "name": "newAdminRole",
          "type": "bytes32"
        }
      ],
      "name": "RoleAdminChanged",
      "type": "event"
    },
    {
      "anonymous": false,
      "inputs": [
        {
          "indexed": true,
          "internalType": "bytes32",
          "name": "role",
          "type": "bytes32"
        },
        {
          "indexed": true,
          "internalType": "address",
          "name": "account",
          "type": "address"
        },
        {
          "indexed": true,
          "internalType": "address",
          "name": "sender",
          "type": "address"
        }
      ],
      "name": "RoleGranted",
      "type": "event"
    },
    {
      "anonymous": false,
      "inputs": [
        {
          "indexed": true,
          "internalType": "bytes32",
          "name": "role",
          "type": "bytes32"
        },
        {
          "indexed": true,
          "internalType": "address",
          "name": "account",
          "type": "address"
        },
        {
          "indexed": true,
          "internalType": "address",
          "name": "sender",
          "type": "address"
        }
      ],
      "name": "RoleRevoked",
      "type": "event"
    },
    {
      "inputs": [],
      "name": "DEFAULT_ADMIN_ROLE",
      "outputs": [
        {
          "internalType": "bytes32",
          "name": "",
          "type": "bytes32"
        }
      ],
      "stateMutability": "view",
      "type": "function"
    },
    {
      "inputs": [],
      "name": "VERIFIER_ROLE",
      "outputs": [
        {
          "internalType": "bytes32",
          "name": "",
          "type": "bytes32"
        }
      ],
      "stateMutability": "view",
      "type": "function"
    },
    {
      "inputs": [
        {
          "internalType": "bytes32",
          "name": "role",
          "type": "bytes32"
        }
      ],
      "name": "getRoleAdmin",
      "outputs": [
        {
          "internalType": "bytes32",
          "name": "",
          "type": "bytes32"
        }
      ],
      "stateMutability": "view",
      "type": "function"
    },
    {
      "inputs": [
        {
          "internalType": "bytes32",
          "name": "role",
          "type": "bytes32"
        },
        {
          "internalType": "address",
          "name": "account",
          "type": "address"
        }
      ],
      "name": "grantRole",
      "outputs": [],
      "stateMutability": "nonpayable",
      "type": "function"
    },
    {
      "inputs": [
        {
          "internalType": "bytes32",
          "name": "role",
          "type": "bytes32"
        },
        {
          "internalType": "address",
          "name": "account",
          "type": "address"
        }
      ],
      "name": "hasRole",
      "outputs": [
        {
          "internalType": "bool",
          "name": "",
          "type": "bool"
        }
      ],
      "stateMutability": "view",
      "type": "function"
    },
    {
      "inputs": [
        {
          "internalType": "address",
          "name": "",
          "type": "address"
        }
      ],
      "name": "identities",
      "outputs": [
        {
          "internalType": "bytes32",
          "name": "document_hash",
          "type": "bytes32"
        },
        {
          "internalType": "enum IdentityVerifier.Status",
          "name": "status",
          "type": "uint8"
        },
        {
          "internalType": "address",
          "name": "verified_by",
          "type": "address"
        },
        {
          "internalType": "uint256",
          "name": "timestamp",
          "type": "uint256"
        }
      ],
      "stateMutability": "view",
      "type": "function"
    },
    {
      "inputs": [
        {
          "internalType": "address",
          "name": "_user",
          "type": "address"
        }
      ],
      "name": "isVerified",
      "outputs": [
        {
          "internalType": "bool",
          "name": "",
          "type": "bool"
        }
      ],
      "stateMutability": "view",
      "type": "function"
    },
    {
      "inputs": [
        {
          "internalType": "bytes32",
          "name": "_document_hash",
          "type": "bytes32"
        }
      ],
      "name": "registerIdentity",
      "outputs": [],
      "stateMutability": "nonpayable",
      "type": "function"
    },
    {
      "inputs": [
        {
          "internalType": "bytes32",
          "name": "role",
          "type": "bytes32"
        },
        {
          "internalType": "address",
          "name": "callerConfirmation",
          "type": "address"
        }
      ],
      "name": "renounceRole",
      "outputs": [],
      "stateMutability": "nonpayable",
      "type": "function"
    },
    {
      "inputs": [
        {
          "internalType": "address",
          "name": "_user",
          "type": "address"
        }
      ],
      "name": "revokeIdentity",
      "outputs": [],
      "stateMutability": "nonpayable",
      "type": "function"
    },
    {
      "inputs": [
        {
          "internalType": "bytes32",
          "name": "role",
          "type": "bytes32"
        },
        {
          "internalType": "address",
          "name": "account",
          "type": "address"
        }
      ],
      "name": "revokeRole",
      "outputs": [],
      "stateMutability": "nonpayable",
      "type": "function"
    },
    {
      "inputs": [
        {
          "internalType": "bytes4",
          "name": "interfaceId",
          "type": "bytes4"
        }
      ],
      "name": "supportsInterface",
      "outputs": [
        {
          "internalType": "bool",
          "name": "",
          "type": "bool"
        }
      ],
      "stateMutability": "view",
      "type": "function"
    },
    {
      "inputs": [
        {
          "internalType": "address",
          "name": "_user",
          "type": "address"
        }
      ],
      "name": "verifyIdentity",
      "outputs": [],
      "stateMutability": "nonpayable",
      "type": "function"
    }
  ],
  "bytecode": "0x6080604052348015600f57600080fd5b506019600033601e565b5060c7565b6000828152602081815260408083206001600160a01b038516845290915281205460ff1660bd576000838152602081815260408083206001600160a01b03861684529091529020805460ff1916600117905560763390565b6001600160a01b0316826001600160a01b0316847f2f8788117e7eff1d82e926ec794901d17c78024a50270940304540a733656f0d60405160405180910390a450600160c1565b5060005b92915050565b610a74806100d66000396000f3fe608060405234801561001057600080fd5b50600436106100cf5760003560e01c806391d148541161008c578063b9209e3311610066578063b9209e33146101a9578063d547741f146101bc578063e7705db6146101cf578063f653b81e146101f657600080fd5b806391d148541461017b578063a217fddf1461018e578063b5b90fd91461019657600080fd5b806301ffc9a7146100d45780630ebddd17146100fc578063103d9fae14610111578063248a9ca3146101245780632f2ff15d1461015557806336568abe14610168575b600080fd5b6100e76100e2366004610932565b610248565b60405190151581526020015b60405180910390f35b61010f61010a36600461097f565b61027f565b005b61010f61011f36600461099a565b6103cf565b61014761013236600461099a565b60009081526020819052604090206001015490565b6040519081526020016100f3565b61010f6101633660046109b3565b61059a565b61010f6101763660046109b3565b6105c5565b6100e76101893660046109b3565b6105fd565b610147600081565b61010f6101a436600461097f565b610626565b6100e76101b736600461097f565b61078c565b61010f6101ca3660046109b3565b6107c6565b6101477f0ce23c3e399818cfee81a7ab0880f714e53d7672b08df0fa62f2843416e1ea0981565b61023861020436600461097f565b600160208190526000918252604090912080549181015460029091015460ff82169161010090046001600160a01b03169084565b6040516100f394939291906109f5565b60006001600160e01b03198216637965db0b60e01b148061027957506301ffc9a760e01b6001600160e01b03198316145b92915050565b7f0ce23c3e399818cfee81a7ab0880f714e53d7672b08df0fa62f2843416e1ea096102a9816107eb565b6001600160a01b0382166102fb5760405162461bcd60e51b8152602060048201526014602482015273496e76616c69642075736572206164647265737360601b60448201526064015b60405180910390fd5b60026001600160a01b0383166000908152600160208190526040909120015460ff16600381111561032e5761032e6109df565b1461037b5760405162461bcd60e51b815260206004820152601e60248201527f43616e206f6e6c79207265766f6b65205665726966696564207573657273000060448201526064016102f2565b6001600160a01b0382166000818152600160208190526040808320909101805460ff19166003179055513392917fd7533bea9fdce549b772c9bf708932fcf1560edaa0c94df3f90e65e75eb7565791a35050565b60008190036104175760405162461bcd60e51b8152602060048201526014602482015273486173682063616e6e6f7420626520656d70747960601b60448201526064016102f2565b3360009081526001602081905260408220015460ff16600381111561043e5761043e6109df565b148061047157506003336000908152600160208190526040909120015460ff16600381111561046f5761046f6109df565b145b6104cc5760405162461bcd60e51b815260206004820152602660248201527f4964656e7469747920616c72656164792072656769737465726564206f722070604482015265656e64696e6760d01b60648201526084016102f2565b60408051608081018252828152600160208083018281526000848601819052606085018190523381529183905293902082518155925183820180549394939192909160ff191690836003811115610525576105256109df565b02179055506040828101516001830180546001600160a01b0390921661010002610100600160a81b03199092169190911790556060909201516002909101555181815233907f209ae2eb4ff1890ce972a80ec3e167b52d41ab089135cc6430447b1430e824be9060200160405180910390a250565b6000828152602081905260409020600101546105b5816107eb565b6105bf83836107f8565b50505050565b6001600160a01b03811633146105ee5760405163334bd91960e11b815260040160405180910390fd5b6105f8828261088a565b505050565b6000918252602082815260408084206001600160a01b0393909316845291905290205460ff1690565b7f0ce23c3e399818cfee81a7ab0880f714e53d7672b08df0fa62f2843416e1ea09610650816107eb565b6001600160a01b03821661069d5760405162461bcd60e51b8152602060048201526014602482015273496e76616c69642075736572206164647265737360601b60448201526064016102f2565b60016001600160a01b0383166000908152600160208190526040909120015460ff1660038111156106d0576106d06109df565b1461071d5760405162461bcd60e51b815260206004820152601d60248201527f55736572206973206e6f7420696e2050656e64696e672073746174757300000060448201526064016102f2565b6001600160a01b0382166000818152600160208190526040808320918201805460026001600160a81b031990911633610100810291909117821790925542930192909255519092917f25e4589528aa4c1dcd5c91ab0cc06e99d962229fb9e54162702032772a1655a091a35050565b6001600160a01b03811660009081526001602081905260408220015460029060ff1660038111156107bf576107bf6109df565b1492915050565b6000828152602081905260409020600101546107e1816107eb565b6105bf838361088a565b6107f581336108f5565b50565b600061080483836105fd565b610882576000838152602081815260408083206001600160a01b03861684529091529020805460ff1916600117905561083a3390565b6001600160a01b0316826001600160a01b0316847f2f8788117e7eff1d82e926ec794901d17c78024a50270940304540a733656f0d60405160405180910390a4506001610279565b506000610279565b600061089683836105fd565b15610882576000838152602081815260408083206001600160a01b0386168085529252808320805460ff1916905551339286917ff6391f5c32d9c69d2a47ea670b442974b53935d1edc7fd64eb21e047a839171b9190a4506001610279565b6108ff82826105fd565b61092e5760405163e2517d3f60e01b81526001600160a01b0382166004820152602481018390526044016102f2565b5050565b60006020828403121561094457600080fd5b81356001600160e01b03198116811461095c57600080fd5b9392505050565b80356001600160a01b038116811461097a57600080fd5b919050565b60006020828403121561099157600080fd5b61095c82610963565b6000602082840312156109ac57600080fd5b5035919050565b600080604083850312156109c657600080fd5b823591506109d660208401610963565b90509250929050565b634e487b7160e01b600052602160045260246000fd5b8481526080810160048510610a1a57634e487b7160e01b600052602160045260246000fd5b60208201949094526001600160a01b0392909216604083015260609091015291905056fea26469706673582212201554dccac59596f12a9e24b04c4f236c42215134e85c245c75820bc1a1f25ecb64736f6c634300081c0033",
  "linkReferences": {},
  "deployedLinkReferences": {}
}