{"contracts/IdentityVerifier.sol":{"IdentityVerifier":{"abi":[{"inputs":[],"stateMutability":"nonpayable","type":"constructor"},{"inputs":[],"name":"AccessControlBadConfirmation","type":"error"},{"inputs":[{"internalType":"address","name":"account","type":"address"},{"internalType":"bytes32","name":"neededRole","type":"bytes32"}],"name":"AccessControlUnauthorizedAccount","type":"error"},{"anonymous":false,"inputs":[{"indexed":true,"internalType":"address","name":"user","type":"address"},{"indexed":false,"internalType":"bytes32","name":"document_hash","type":"bytes32"}],"name":"IdentityRegistered","type":"event"},{"anonymous":false,"inputs":[{"indexed":true,"internalType":"address","name":"user","type":"address"},{"indexed":true,"internalType":"address","name":"revoker","type":"address"}],"name":"IdentityRevoked","type":"event"},{"anonymous":false,"inputs":[{"indexed":true,"internalType":"address","name":"user","type":"address"},{"indexed":true,"internalType":"address","name":"verifier","type":"address"}],"name":"IdentityVerified","type":"event"},{"anonymous":false,"inputs":[{"indexed":true,"internalType":"bytes32","name":"role","type":"bytes32"},{"indexed":true,"internalType":"bytes32","name":"previousAdminRole","type":"bytes32"},{"indexed":true,"internalType":"bytes32","name":"newAdminRole","type":"bytes32"}],"name":"RoleAdminChanged","type":"event"},{"anonymous":false,"inputs":[{"indexed":true,"internalType":"bytes32","name":"role","type":"bytes32"},{"indexed":true,"internalType":"address","name":"account","type":"address"},{"indexed":true,"internalType":"address","name":"sender","type":"address"}],"name":"RoleGranted","type":"event"},{"anonymous":false,"inputs":[{"indexed":true,"internalType":"bytes32","name":"role","type":"bytes32"},{"indexed":true,"internalType":"address","name":"account","type":"address"},{"indexed":true,"internalType":"address","name":"sender","type":"address"}],"name":"RoleRevoked","type":"event"},{"inputs":[],"name":"DEFAULT_ADMIN_ROLE","outputs":[{"internalType":"bytes32","name":"","type":"bytes32"}],"stateMutability":"view","type":"function"},{"inputs":[],"name":"VERIFIER_ROLE","outputs":[{"internalType":"bytes32","name":"","type":"bytes32"}],"stateMutability":"view","type":"function"},{"inputs":[{"internalType":"address","name":"_verifier","type":"address"}],"name":"addVerifier","outputs":[],"stateMutability":"nonpayable","type":"function"},{"inputs":[{"internalType":"address","name":"_user","type":"address"}],"name":"getIdentityRecord","outputs":[{"internalType":"bytes32","name":"documentHash","type":"bytes32"},{"internalType":"enum IdentityVerifier.Status","name":"status","type":"uint8"},{"internalType":"address","name":"verifiedBy","type":"address"},{"internalType":"uint64","name":"timestamp","type":"uint64"}],"stateMutability":"view","type":"function"},{"inputs":[{"internalType":"bytes32","name":"role","type":"bytes32"}],"name":"getRoleAdmin","outputs":[{"internalType":"bytes32","name":"","type":"bytes32"}],"stateMutability":"view","type":"function"},{"inputs":[{"internalType":"bytes32","name":"role","type":"bytes32"},{"internalType":"address","name":"account","type":"address"}],"name":"grantRole","outputs":[],"stateMutability":"nonpayable","type":"function"},{"inputs":[{"internalType":"bytes32","name":"role","type":"bytes32"},{"internalType":"address","name":"account","type":"address"}],"name":"hasRole","outputs":[{"internalType":"bool","name":"","type":"bool"}],"stateMutability":"view","type":"function"},{"inputs":[{"internalType":"address","name":"","type":"address"}],"name":"identities","outputs":[{"internalType":"bytes32","name":"document_hash","type":"bytes32"},{"internalType":"enum IdentityVerifier.Status","name":"status","type":"uint8"},{"internalType":"address","name":"verified_by","type":"address"},{"internalType":"uint64","name":"timestamp","type":"uint64"}],"stateMutability":"view","type":"function"},{"inputs":[{"internalType":"address","name":"_user","type":"address"}],"name":"isVerified","outputs":[{"internalType":"bool","name":"","type":"bool"}],"stateMutability":"view","type":"function"},{"inputs":[{"internalType":"bytes32","name":"_document_hash","type":"bytes32"}],"name":"registerIdentity","outputs":[],"stateMutability":"nonpayable","type":"function"},{"inputs":[{"internalType":"address","name":"_verifier","type":"address"}],"name":"removeVerifier","outputs":[],"stateMutability":"nonpayable","type":"function"},{"inputs":[{"internalType":"bytes32","name":"role","type":"bytes32"},{"internalType":"address","name":"callerConfirmation","type":"address"}],"name":"renounceRole","outputs":[],"stateMutability":"nonpayable","type":"function"},{"inputs":[{"internalType":"address","name":"_user","type":"address"}],"name":"revokeIdentity","outputs":[],"stateMutability":"nonpayable","type":"function"},{"inputs":[{"internalType":"bytes32","name":"role","type":"bytes32"},{"internalType":"address","name":"account","type":"address"}],"name":"revokeRole","outputs":[],"stateMutability":"nonpayable","type":"function"},{"inputs":[{"internalType":"bytes4","name":"interfaceId","type":"bytes4"}],"name":"supportsInterface","outputs":[{"internalType":"bool","name":"","type":"bool"}],"stateMutability":"view","type":"function"},{"inputs":[{"internalType":"address","name":"_user","type":"address"}],"name":"verifyIdentity","outputs":[],"stateMutability":"nonpayable","type":"function"}],"evm":{"bytecode":{"linkReferences":{},"object":"6080604052348015600f57600080fd5b506019600033601e565b5060c7565b6000828152602081815260408083206001600160a01b038516845290915281205460ff1660bd576000838152602081815260408083206001600160a01b03861684529091529020805460ff1916600117905560763390565b6001600160a01b0316826001600160a01b0316847f2f8788117e7eff1d82e926ec794901d17c78024a50270940304540a733656f0d60405160405180910390a450600160c1565b5060005b92915050565b610d09806100d66000396000f3fe608060405234801561001057600080fd5b50600436106101005760003560e01c806391d1485411610097578063ca2dfd0a11610066578063ca2dfd0a14610223578063d547741f14610236578063e7705db614610249578063f653b81e1461025e57600080fd5b806391d14854146101e2578063a217fddf146101f5578063b5b90fd9146101fd578063b9209e331461021057600080fd5b80632f2ff15d116100d35780632f2ff15d1461018657806336568abe146101995780635ad0c0bf146101ac5780639000b3d6146101cf57600080fd5b806301ffc9a7146101055780630ebddd171461012d578063103d9fae14610142578063248a9ca314610155575b600080fd5b610118610113366004610b9d565b6102aa565b60405190151581526020015b60405180910390f35b61014061013b366004610bea565b6102e1565b005b610140610150366004610c05565b61046c565b610178610163366004610c05565b60009081526020819052604090206001015490565b604051908152602001610124565b610140610194366004610c1e565b61065f565b6101406101a7366004610c1e565b61068a565b6101bf6101ba366004610bea565b6106c2565b6040516101249493929190610c60565b6101406101dd366004610bea565b61077a565b6101186101f0366004610c1e565b6107f2565b610178600081565b61014061020b366004610bea565b61081b565b61011861021e366004610bea565b61098b565b610140610231366004610bea565b6109c5565b610140610244366004610c1e565b610a35565b610178600080516020610cb483398151915281565b6101bf61026c366004610bea565b6001602081905260009182526040909120805491015460ff81169061010081046001600160a01b031690600160a81b900467ffffffffffffffff1684565b60006001600160e01b03198216637965db0b60e01b14806102db57506301ffc9a760e01b6001600160e01b03198316145b92915050565b600080516020610cb48339815191526102f981610a5a565b6001600160a01b03821661034b5760405162461bcd60e51b8152602060048201526014602482015273496e76616c69642075736572206164647265737360601b60448201526064015b60405180910390fd5b60026001600160a01b0383166000908152600160208190526040909120015460ff16600381111561037e5761037e610c4a565b14806103ba575060016001600160a01b0383166000908152600160208190526040909120015460ff1660038111156103b8576103b8610c4a565b145b6104185760405162461bcd60e51b815260206004820152602960248201527f43616e206f6e6c79207265766f6b65205665726966696564206f722050656e64604482015268696e6720757365727360b81b6064820152608401610342565b6001600160a01b0382166000818152600160208190526040808320909101805460ff19166003179055513392917fd7533bea9fdce549b772c9bf708932fcf1560edaa0c94df3f90e65e75eb7565791a35050565b60008190036104b45760405162461bcd60e51b8152602060048201526014602482015273486173682063616e6e6f7420626520656d70747960601b6044820152606401610342565b3360009081526001602081905260408220015460ff1660038111156104db576104db610c4a565b148061050e57506003336000908152600160208190526040909120015460ff16600381111561050c5761050c610c4a565b145b6105695760405162461bcd60e51b815260206004820152602660248201527f4964656e7469747920616c72656164792072656769737465726564206f722070604482015265656e64696e6760d01b6064820152608401610342565b60408051608081018252828152600160208083018281526000848601819052606085018190523381529183905293902082518155925183820180549394939192909160ff1916908360038111156105c2576105c2610c4a565b02179055506040828101516001909201805460609094015167ffffffffffffffff16600160a81b0267ffffffffffffffff60a81b196001600160a01b039094166101000293909316610100600160e81b031990941693909317919091179091555133907f209ae2eb4ff1890ce972a80ec3e167b52d41ab089135cc6430447b1430e824be906106549084815260200190565b60405180910390a250565b60008281526020819052604090206001015461067a81610a5a565b6106848383610a67565b50505050565b6001600160a01b03811633146106b35760405163334bd91960e11b815260040160405180910390fd5b6106bd8282610af9565b505050565b6001600160a01b03811660009081526001602081815260408084208151608081019092528054825292830154849384938493849390929183019060ff16600381111561071057610710610c4a565b600381111561072157610721610c4a565b81526001919091015461010081046001600160a01b0316602080840191909152600160a81b90910467ffffffffffffffff1660409283015282519083015191830151606090930151909991985091965090945092505050565b600061078581610a5a565b6001600160a01b0382166107d65760405162461bcd60e51b8152602060048201526018602482015277496e76616c6964207665726966696572206164647265737360401b6044820152606401610342565b6107ee600080516020610cb48339815191528361065f565b5050565b6000918252602082815260408084206001600160a01b0393909316845291905290205460ff1690565b600080516020610cb483398151915261083381610a5a565b6001600160a01b0382166108805760405162461bcd60e51b8152602060048201526014602482015273496e76616c69642075736572206164647265737360601b6044820152606401610342565b60016001600160a01b0383166000908152600160208190526040909120015460ff1660038111156108b3576108b3610c4a565b146109005760405162461bcd60e51b815260206004820152601d60248201527f55736572206973206e6f7420696e2050656e64696e67207374617475730000006044820152606401610342565b6001600160a01b0382166000818152600160208190526040808320909101805460026001600160e81b031990911633610100810267ffffffffffffffff60a81b191691909117600160a81b4267ffffffffffffffff1602179190911790915590519092917f25e4589528aa4c1dcd5c91ab0cc06e99d962229fb9e54162702032772a1655a091a35050565b6001600160a01b03811660009081526001602081905260408220015460029060ff1660038111156109be576109be610c4a565b1492915050565b60006109d081610a5a565b6001600160a01b038216610a215760405162461bcd60e51b8152602060048201526018602482015277496e76616c6964207665726966696572206164647265737360401b6044820152606401610342565b6107ee600080516020610cb4833981519152835b600082815260208190526040902060010154610a5081610a5a565b6106848383610af9565b610a648133610b64565b50565b6000610a7383836107f2565b610af1576000838152602081815260408083206001600160a01b03861684529091529020805460ff19166001179055610aa93390565b6001600160a01b0316826001600160a01b0316847f2f8788117e7eff1d82e926ec794901d17c78024a50270940304540a733656f0d60405160405180910390a45060016102db565b5060006102db565b6000610b0583836107f2565b15610af1576000838152602081815260408083206001600160a01b0386168085529252808320805460ff1916905551339286917ff6391f5c32d9c69d2a47ea670b442974b53935d1edc7fd64eb21e047a839171b9190a45060016102db565b610b6e82826107f2565b6107ee5760405163e2517d3f60e01b81526001600160a01b038216600482015260248101839052604401610342565b600060208284031215610baf57600080fd5b81356001600160e01b031981168114610bc757600080fd5b9392505050565b80356001600160a01b0381168114610be557600080fd5b919050565b600060208284031215610bfc57600080fd5b610bc782610bce565b600060208284031215610c1757600080fd5b5035919050565b60008060408385031215610c3157600080fd5b82359150610c4160208401610bce565b90509250929050565b634e487b7160e01b600052602160045260246000fd5b8481526080810160048510610c8557634e487b7160e01b600052602160045260246000fd5b60208201949094526001600160a01b0392909216604083015267ffffffffffffffff1660609091015291905056fe0ce23c3e399818cfee81a7ab0880f714e53d7672b08df0fa62f2843416e1ea09a2646970667358221220331130560fc4782476ba385bd7289f1d4cbb2d9fe0ca4f10dac19b550589908364736f6c634300081c0033","opcodes":"PUSH1 0x80 PUSH1 0x40 MSTORE CALLVALUE DUP1 ISZERO PUSH1 0xF JUMPI PUSH1 0x0 DUP1 REVERT JUMPDEST POP PUSH1 0x19 PUSH1 0x0 CALLER PUSH1 0x1E JUMP JUMPDEST POP PUSH1 0xC7 JUMP JUMPDEST PUSH1 0x0 DUP3 DUP2 MSTORE PUSH1 0x20 DUP2 DUP2 MSTORE PUSH1 0x40 DUP1 DUP4 KECCAK256 PUSH1 0x1 PUSH1 0x1 PUSH1 0xA0 SHL SUB DUP6 AND DUP5 MSTORE SWAP1 SWAP2 MSTORE DUP2 KECCAK256 SLOAD PUSH1 0xFF AND PUSH1 0xBD JUMPI PUSH1 0x0 DUP4 DUP2 MSTORE PUSH1 0x20 DUP2 DUP2 MSTORE PUSH1 0x40 DUP1 DUP4 KECCAK256 PUSH1 0x1 PUSH1 0x1 PUSH1 0xA0 SHL SUB DUP7 AND DUP5 MSTORE SWAP1 SWAP2 MSTORE SWAP1 KECCAK256 DUP1 SLOAD PUSH1 0xFF NOT AND PUSH1 0x1 OR SWAP1 SSTORE PUSH1 0x76 CALLER SWAP1 JUMP JUMPDEST PUSH1 0x1 PUSH1 0x1 PUSH1 0xA0 SHL SUB AND DUP3 PUSH1 0x1 PUSH1 0x1 PUSH1 0xA0 SHL SUB AND DUP5 PUSH32 0x2F8788117E7EFF1D82E926EC794901D17C78024A50270940304540A733656F0D PUSH1 0x40 MLOAD PUSH1 0x40 MLOAD DUP1 SWAP2 SUB SWAP1 LOG4 POP PUSH1 0x1 PUSH1 0xC1 JUMP JUMPDEST POP PUSH1 0x0 JUMPDEST SWAP3 SWAP2 POP POP JUMP JUMPDEST PUSH2 0xD09 DUP1 PUSH2 0xD6 PUSH1 0x0 CODECOPY PUSH1 0x0 RETURN INVALID PUSH1 0x80 PUSH1 0x40 MSTORE CALLVALUE DUP1 ISZERO PUSH2 0x10 JUMPI PUSH1 0x0 DUP1 REVERT JUMPDEST POP PUSH1 0x4 CALLDATASIZE LT PUSH2 0x100 JUMPI PUSH1 0x0 CALLDATALOAD PUSH1 0xE0 SHR DUP1 PUSH4 0x91D14854 GT PUSH2 0x97 JUMPI DUP1 PUSH4 0xCA2DFD0A GT PUSH2 0x66 JUMPI DUP1 PUSH4 0xCA2DFD0A EQ PUSH2 0x223 JUMPI DUP1 PUSH4 0xD547741F EQ PUSH2 0x236 JUMPI DUP1 PUSH4 0xE7705DB6 EQ PUSH2 0x249 JUMPI DUP1 PUSH4 0xF653B81E EQ PUSH2 0x25E JUMPI PUSH1 0x0 DUP1 REVERT JUMPDEST DUP1 PUSH4 0x91D14854 EQ PUSH2 0x1E2 JUMPI DUP1 PUSH4 0xA217FDDF EQ PUSH2 0x1F5 JUMPI DUP1 PUSH4 0xB5B90FD9 EQ PUSH2 0x1FD JUMPI DUP1 PUSH4 0xB9209E33 EQ PUSH2 0x210 JUMPI PUSH1 0x0 DUP1 REVERT JUMPDEST DUP1 PUSH4 0x2F2FF15D GT PUSH2 0xD3 JUMPI DUP1 PUSH4 0x2F2FF15D EQ PUSH2 0x186 JUMPI DUP1 PUSH4 0x36568ABE EQ PUSH2 0x199 JUMPI DUP1 PUSH4 0x5AD0C0BF EQ PUSH2 0x1AC JUMPI DUP1 PUSH4 0x9000B3D6 EQ PUSH2 0x1CF JUMPI PUSH1 0x0 DUP1 REVERT JUMPDEST DUP1 PUSH4 0x1FFC9A7 EQ PUSH2 0x105 JUMPI DUP1 PUSH4 0xEBDDD17 EQ PUSH2 0x12D JUMPI DUP1 PUSH4 0x103D9FAE EQ PUSH2 0x142 JUMPI DUP1 PUSH4 0x248A9CA3 EQ PUSH2 0x155 JUMPI JUMPDEST PUSH1 0x0 DUP1 REVERT JUMPDEST PUSH2 0x118 PUSH2 0x113 CALLDATASIZE PUSH1 0x4 PUSH2 0xB9D JUMP JUMPDEST PUSH2 0x2AA JUMP JUMPDEST PUSH1 0x40 MLOAD SWAP1 ISZERO ISZERO DUP2 MSTORE PUSH1 0x20 ADD JUMPDEST PUSH1 0x40 MLOAD DUP1 SWAP2 SUB SWAP1 RETURN JUMPDEST PUSH2 0x140 PUSH2 0x13B CALLDATASIZE PUSH1 0x4 PUSH2 0xBEA JUMP JUMPDEST PUSH2 0x2E1 JUMP JUMPDEST STOP JUMPDEST PUSH2 0x140 PUSH2 0x150 CALLDATASIZE PUSH1 0x4 PUSH2 0xC05 JUMP JUMPDEST PUSH2 0x46C JUMP JUMPDEST PUSH2 0x178 PUSH2 0x163 CALLDATASIZE PUSH1 0x4 PUSH2 0xC05 JUMP JUMPDEST PUSH1 0x0 SWAP1 DUP2 MSTORE PUSH1 0x20 DUP2 SWAP1 MSTORE PUSH1 0x40 SWAP1 KECCAK256 PUSH1 0x1 ADD SLOAD SWAP1 JUMP JUMPDEST PUSH1 0x40 MLOAD SWAP1 DUP2 MSTORE PUSH1 0x20 ADD PUSH2 0x124 JUMP JUMPDEST PUSH2 0x140 PUSH2 0x194 CALLDATASIZE PUSH1 0x4 PUSH2 0xC1E JUMP JUMPDEST PUSH2 0x65F JUMP JUMPDEST PUSH2 0x140 PUSH2 0x1A7 CALLDATASIZE PUSH1 0x4 PUSH2 0xC1E JUMP JUMPDEST PUSH2 0x68A JUMP JUMPDEST PUSH2 0x1BF PUSH2 0x1BA CALLDATASIZE PUSH1 0x4 PUSH2 0xBEA JUMP JUMPDEST PUSH2 0x6C2 JUMP JUMPDEST PUSH1 0x40 MLOAD PUSH2 0x124 SWAP5 SWAP4 SWAP3 SWAP2 SWAP1 PUSH2 0xC60 JUMP JUMPDEST PUSH2 0x140 PUSH2 0x1DD CALLDATASIZE PUSH1 0x4 PUSH2 0xBEA JUMP JUMPDEST PUSH2 0x77A JUMP JUMPDEST PUSH2 0x118 PUSH2 0x1F0 CALLDATASIZE PUSH1 0x4 PUSH2 0xC1E JUMP JUMPDEST PUSH2 0x7F2 JUMP JUMPDEST PUSH2 0x178 PUSH1 0x0 DUP2 JUMP JUMPDEST PUSH2 0x140 PUSH2 0x20B CALLDATASIZE PUSH1 0x4 PUSH2 0xBEA JUMP JUMPDEST PUSH2 0x81B JUMP JUMPDEST PUSH2 0x118 PUSH2 0x21E CALLDATASIZE PUSH1 0x4 PUSH2 0xBEA JUMP JUMPDEST PUSH2 0x98B JUMP JUMPDEST PUSH2 0x140 PUSH2 0x231 CALLDATASIZE PUSH1 0x4 PUSH2 0xBEA JUMP JUMPDEST PUSH2 0x9C5 JUMP JUMPDEST PUSH2 0x140 PUSH2 0x244 CALLDATASIZE PUSH1 0x4 PUSH2 0xC1E JUMP JUMPDEST PUSH2 0xA35 JUMP JUMPDEST PUSH2 0x178 PUSH1 0x0 DUP1 MLOAD PUSH1 0x20 PUSH2 0xCB4 DUP4 CODECOPY DUP2 MLOAD SWAP2 MSTORE DUP2 JUMP JUMPDEST PUSH2 0x1BF PUSH2 0x26C CALLDATASIZE PUSH1 0x4 PUSH2 0xBEA JUMP JUMPDEST PUSH1 0x1 PUSH1 0x20 DUP2 SWAP1 MSTORE PUSH1 0x0 SWAP2 DUP3 MSTORE PUSH1 0x40 SWAP1 SWAP2 KECCAK256 DUP1 SLOAD SWAP2 ADD SLOAD PUSH1 0xFF DUP2 AND SWAP1 PUSH2 0x100 DUP2 DIV PUSH1 0x1 PUSH1 0x1 PUSH1 0xA0 SHL SUB AND SWAP1 PUSH1 0x1 PUSH1 0xA8 SHL SWAP1 DIV PUSH8 0xFFFFFFFFFFFFFFFF AND DUP5 JUMP JUMPDEST PUSH1 0x0 PUSH1 0x1 PUSH1 0x1 PUSH1 0xE0 SHL SUB NOT DUP3 AND PUSH4 0x7965DB0B PUSH1 0xE0 SHL EQ DUP1 PUSH2 0x2DB JUMPI POP PUSH4 0x1FFC9A7 PUSH1 0xE0 SHL PUSH1 0x1 PUSH1 0x1 PUSH1 0xE0 SHL SUB NOT DUP4 AND EQ JUMPDEST SWAP3 SWAP2 POP POP JUMP JUMPDEST PUSH1 0x0 DUP1 MLOAD PUSH1 0x20 PUSH2 0xCB4 DUP4 CODECOPY DUP2 MLOAD SWAP2 MSTORE PUSH2 0x2F9 DUP2 PUSH2 0xA5A JUMP JUMPDEST PUSH1 0x1 PUSH1 0x1 PUSH1 0xA0 SHL SUB DUP3 AND PUSH2 0x34B JUMPI PUSH1 0x40 MLOAD PUSH3 0x461BCD PUSH1 0xE5 SHL DUP2 MSTORE PUSH1 0x20 PUSH1 0x4 DUP3 ADD MSTORE PUSH1 0x14 PUSH1 0x24 DUP3 ADD MSTORE PUSH20 0x496E76616C696420757365722061646472657373 PUSH1 0x60 SHL PUSH1 0x44 DUP3 ADD MSTORE PUSH1 0x64 ADD JUMPDEST PUSH1 0x40 MLOAD DUP1 SWAP2 SUB SWAP1 REVERT JUMPDEST PUSH1 0x2 PUSH1 0x1 PUSH1 0x1 PUSH1 0xA0 SHL SUB DUP4 AND PUSH1 0x0 SWAP1 DUP2 MSTORE PUSH1 0x1 PUSH1 0x20 DUP2 SWAP1 MSTORE PUSH1 0x40 SWAP1 SWAP2 KECCAK256 ADD SLOAD PUSH1 0xFF AND PUSH1 0x3 DUP2 GT ISZERO PUSH2 0x37E JUMPI PUSH2 0x37E PUSH2 0xC4A JUMP JUMPDEST EQ DUP1 PUSH2 0x3BA JUMPI POP PUSH1 0x1 PUSH1 0x1 PUSH1 0x1 PUSH1 0xA0 SHL SUB DUP4 AND PUSH1 0x0 SWAP1 DUP2 MSTORE PUSH1 0x1 PUSH1 0x20 DUP2 SWAP1 MSTORE PUSH1 0x40 SWAP1 SWAP2 KECCAK256 ADD SLOAD PUSH1 0xFF AND PUSH1 0x3 DUP2 GT ISZERO PUSH2 0x3B8 JUMPI PUSH2 0x3B8 PUSH2 0xC4A JUMP JUMPDEST EQ JUMPDEST PUSH2 0x418 JUMPI PUSH1 0x40 MLOAD PUSH3 0x461BCD PUSH1 0xE5 SHL DUP2 MSTORE PUSH1 0x20 PUSH1 0x4 DUP3 ADD MSTORE PUSH1 0x29 PUSH1 0x24 DUP3 ADD MSTORE PUSH32 0x43616E206F6E6C79207265766F6B65205665726966696564206F722050656E64 PUSH1 0x44 DUP3 ADD MSTORE PUSH9 0x696E67207573657273 PUSH1 0xB8 SHL PUSH1 0x64 DUP3 ADD MSTORE PUSH1 0x84 ADD PUSH2 0x342 JUMP JUMPDEST PUSH1 0x1 PUSH1 0x1 PUSH1 0xA0 SHL SUB DUP3 AND PUSH1 0x0 DUP2 DUP2 MSTORE PUSH1 0x1 PUSH1 0x20 DUP2 SWAP1 MSTORE PUSH1 0x40 DUP1 DUP4 KECCAK256 SWAP1 SWAP2 ADD DUP1 SLOAD PUSH1 0xFF NOT AND PUSH1 0x3 OR SWAP1 SSTORE MLOAD CALLER SWAP3 SWAP2 PUSH32 0xD7533BEA9FDCE549B772C9BF708932FCF1560EDAA0C94DF3F90E65E75EB75657 SWAP2 LOG3 POP POP JUMP JUMPDEST PUSH1 0x0 DUP2 SWAP1 SUB PUSH2 0x4B4 JUMPI PUSH1 0x40 MLOAD PUSH3 0x461BCD PUSH1 0xE5 SHL DUP2 MSTORE PUSH1 0x20 PUSH1 0x4 DUP3 ADD MSTORE PUSH1 0x14 PUSH1 0x24 DUP3 ADD MSTORE PUSH20 0x486173682063616E6E6F7420626520656D707479 PUSH1 0x60 SHL PUSH1 0x44 DUP3 ADD MSTORE PUSH1 0x64 ADD PUSH2 0x342 JUMP JUMPDEST CALLER PUSH1 0x0 SWAP1 DUP2 MSTORE PUSH1 0x1 PUSH1 0x20 DUP2 SWAP1 MSTORE PUSH1 0x40 DUP3 KECCAK256 ADD SLOAD PUSH1 0xFF AND PUSH1 0x3 DUP2 GT ISZERO PUSH2 0x4DB JUMPI PUSH2 0x4DB PUSH2 0xC4A JUMP JUMPDEST EQ DUP1 PUSH2 0x50E JUMPI POP PUSH1 0x3 CALLER PUSH1 0x0 SWAP1 DUP2 MSTORE PUSH1 0x1 PUSH1 0x20 DUP2 SWAP1 MSTORE PUSH1 0x40 SWAP1 SWAP2 KECCAK256 ADD SLOAD PUSH1 0xFF AND PUSH1 0x3 DUP2 GT ISZERO PUSH2 0x50C JUMPI PUSH2 0x50C PUSH2 0xC4A JUMP JUMPDEST EQ JUMPDEST PUSH2 0x569 JUMPI PUSH1 0x40 MLOAD PUSH3 0x461BCD PUSH1 0xE5 SHL DUP2 MSTORE PUSH1 0x20 PUSH1 0x4 DUP3 ADD MSTORE PUSH1 0x26 PUSH1 0x24 DUP3 ADD MSTORE PUSH32 0x4964656E7469747920616C72656164792072656769737465726564206F722070 PUSH1 0x44 DUP3 ADD MSTORE PUSH6 0x656E64696E67 PUSH1 0xD0 SHL PUSH1 0x64 DUP3 ADD MSTORE PUSH1 0x84 ADD PUSH2 0x342 JUMP JUMPDEST PUSH1 0x40 DUP1 MLOAD PUSH1 0x80 DUP2 ADD DUP3 MSTORE DUP3 DUP2 MSTORE PUSH1 0x1 PUSH1 0x20 DUP1 DUP4 ADD DUP3 DUP2 MSTORE PUSH1 0x0 DUP5 DUP7 ADD DUP2 SWAP1 MSTORE PUSH1 0x60 DUP6 ADD DUP2 SWAP1 MSTORE CALLER DUP2 MSTORE SWAP2 DUP4 SWAP1 MSTORE SWAP4 SWAP1 KECCAK256 DUP3 MLOAD DUP2 SSTORE SWAP3 MLOAD DUP4 DUP3 ADD DUP1 SLOAD SWAP4 SWAP5 SWAP4 SWAP2 SWAP3 SWAP1 SWAP2 PUSH1 0xFF NOT AND SWAP1 DUP4 PUSH1 0x3 DUP2 GT ISZERO PUSH2 0x5C2 JUMPI PUSH2 0x5C2 PUSH2 0xC4A JUMP JUMPDEST MUL OR SWAP1 SSTORE POP PUSH1 0x40 DUP3 DUP2 ADD MLOAD PUSH1 0x1 SWAP1 SWAP3 ADD DUP1 SLOAD PUSH1 0x60 SWAP1 SWAP5 ADD MLOAD PUSH8 0xFFFFFFFFFFFFFFFF AND PUSH1 0x1 PUSH1 0xA8 SHL MUL PUSH8 0xFFFFFFFFFFFFFFFF PUSH1 0xA8 SHL NOT PUSH1 0x1 PUSH1 0x1 PUSH1 0xA0 SHL SUB SWAP1 SWAP5 AND PUSH2 0x100 MUL SWAP4 SWAP1 SWAP4 AND PUSH2 0x100 PUSH1 0x1 PUSH1 0xE8 SHL SUB NOT SWAP1 SWAP5 AND SWAP4 SWAP1 SWAP4 OR SWAP2 SWAP1 SWAP2 OR SWAP1 SWAP2 SSTORE MLOAD CALLER SWAP1 PUSH32 0x209AE2EB4FF1890CE972A80EC3E167B52D41AB089135CC6430447B1430E824BE SWAP1 PUSH2 0x654 SWAP1 DUP5 DUP2 MSTORE PUSH1 0x20 ADD SWAP1 JUMP JUMPDEST PUSH1 0x40 MLOAD DUP1 SWAP2 SUB SWAP1 LOG2 POP JUMP JUMPDEST PUSH1 0x0 DUP3 DUP2 MSTORE PUSH1 0x20 DUP2 SWAP1 MSTORE PUSH1 0x40 SWAP1 KECCAK256 PUSH1 0x1 ADD SLOAD PUSH2 0x67A DUP2 PUSH2 0xA5A JUMP JUMPDEST PUSH2 0x684 DUP4 DUP4 PUSH2 0xA67 JUMP JUMPDEST POP POP POP POP JUMP JUMPDEST PUSH1 0x1 PUSH1 0x1 PUSH1 0xA0 SHL SUB DUP2 AND CALLER EQ PUSH2 0x6B3 JUMPI PUSH1 0x40 MLOAD PUSH4 0x334BD919 PUSH1 0xE1 SHL DUP2 MSTORE PUSH1 0x4 ADD PUSH1 0x40 MLOAD DUP1 SWAP2 SUB SWAP1 REVERT JUMPDEST PUSH2 0x6BD DUP3 DUP3 PUSH2 0xAF9 JUMP JUMPDEST POP POP POP JUMP JUMPDEST PUSH1 0x1 PUSH1 0x1 PUSH1 0xA0 SHL SUB DUP2 AND PUSH1 0x0 SWAP1 DUP2 MSTORE PUSH1 0x1 PUSH1 0x20 DUP2 DUP2 MSTORE PUSH1 0x40 DUP1 DUP5 KECCAK256 DUP2 MLOAD PUSH1 0x80 DUP2 ADD SWAP1 SWAP3 MSTORE DUP1 SLOAD DUP3 MSTORE SWAP3 DUP4 ADD SLOAD DUP5 SWAP4 DUP5 SWAP4 DUP5 SWAP4 DUP5 SWAP4 SWAP1 SWAP3 SWAP2 DUP4 ADD SWAP1 PUSH1 0xFF AND PUSH1 0x3 DUP2 GT ISZERO PUSH2 0x710 JUMPI PUSH2 0x710 PUSH2 0xC4A JUMP JUMPDEST PUSH1 0x3 DUP2 GT ISZERO PUSH2 0x721 JUMPI PUSH2 0x721 PUSH2 0xC4A JUMP JUMPDEST DUP2 MSTORE PUSH1 0x1 SWAP2 SWAP1 SWAP2 ADD SLOAD PUSH2 0x100 DUP2 DIV PUSH1 0x1 PUSH1 0x1 PUSH1 0xA0 SHL SUB AND PUSH1 0x20 DUP1 DUP5 ADD SWAP2 SWAP1 SWAP2 MSTORE PUSH1 0x1 PUSH1 0xA8 SHL SWAP1 SWAP2 DIV PUSH8 0xFFFFFFFFFFFFFFFF AND PUSH1 0x40 SWAP3 DUP4 ADD MSTORE DUP3 MLOAD SWAP1 DUP4 ADD MLOAD SWAP2 DUP4 ADD MLOAD PUSH1 0x60 SWAP1 SWAP4 ADD MLOAD SWAP1 SWAP10 SWAP2 SWAP9 POP SWAP2 SWAP7 POP SWAP1 SWAP5 POP SWAP3 POP POP POP JUMP JUMPDEST PUSH1 0x0 PUSH2 0x785 DUP2 PUSH2 0xA5A JUMP JUMPDEST PUSH1 0x1 PUSH1 0x1 PUSH1 0xA0 SHL SUB DUP3 AND PUSH2 0x7D6 JUMPI PUSH1 0x40 MLOAD PUSH3 0x461BCD PUSH1 0xE5 SHL DUP2 MSTORE PUSH1 0x20 PUSH1 0x4 DUP3 ADD MSTORE PUSH1 0x18 PUSH1 0x24 DUP3 ADD MSTORE PUSH24 0x496E76616C69642076657269666965722061646472657373 PUSH1 0x40 SHL PUSH1 0x44 DUP3 ADD MSTORE PUSH1 0x64 ADD PUSH2 0x342 JUMP JUMPDEST PUSH2 0x7EE PUSH1 0x0 DUP1 MLOAD PUSH1 0x20 PUSH2 0xCB4 DUP4 CODECOPY DUP2 MLOAD SWAP2 MSTORE DUP4 PUSH2 0x65F JUMP JUMPDEST POP POP JUMP JUMPDEST PUSH1 0x0 SWAP2 DUP3 MSTORE PUSH1 0x20 DUP3 DUP2 MSTORE PUSH1 0x40 DUP1 DUP5 KECCAK256 PUSH1 0x1 PUSH1 0x1 PUSH1 0xA0 SHL SUB SWAP4 SWAP1 SWAP4 AND DUP5 MSTORE SWAP2 SWAP1 MSTORE SWAP1 KECCAK256 SLOAD PUSH1 0xFF AND SWAP1 JUMP JUMPDEST PUSH1 0x0 DUP1 MLOAD PUSH1 0x20 PUSH2 0xCB4 DUP4 CODECOPY DUP2 MLOAD SWAP2 MSTORE PUSH2 0x833 DUP2 PUSH2 0xA5A JUMP JUMPDEST PUSH1 0x1 PUSH1 0x1 PUSH1 0xA0 SHL SUB DUP3 AND PUSH2 0x880 JUMPI PUSH1 0x40 MLOAD PUSH3 0x461BCD PUSH1 0xE5 SHL DUP2 MSTORE PUSH1 0x20 PUSH1 0x4 DUP3 ADD MSTORE PUSH1 0x14 PUSH1 0x24 DUP3 ADD MSTORE PUSH20 0x496E76616C696420757365722061646472657373 PUSH1 0x60 SHL PUSH1 0x44 DUP3 ADD MSTORE PUSH1 0x64 ADD PUSH2 0x342 JUMP JUMPDEST PUSH1 0x1 PUSH1 0x1 PUSH1 0x1 PUSH1 0xA0 SHL SUB DUP4 AND PUSH1 0x0 SWAP1 DUP2 MSTORE PUSH1 0x1 PUSH1 0x20 DUP2 SWAP1 MSTORE PUSH1 0x40 SWAP1 SWAP2 KECCAK256 ADD SLOAD PUSH1 0xFF AND PUSH1 0x3 DUP2 GT ISZERO PUSH2 0x8B3 JUMPI PUSH2 0x8B3 PUSH2 0xC4A JUMP JUMPDEST EQ PUSH2 0x900 JUMPI PUSH1 0x40 MLOAD PUSH3 0x461BCD PUSH1 0xE5 SHL DUP2 MSTORE PUSH1 0x20 PUSH1 0x4 DUP3 ADD MSTORE PUSH1 0x1D PUSH1 0x24 DUP3 ADD MSTORE PUSH32 0x55736572206973206E6F7420696E2050656E64696E6720737461747573000000 PUSH1 0x44 DUP3 ADD MSTORE PUSH1 0x64 ADD PUSH2 0x342 JUMP JUMPDEST PUSH1 0x1 PUSH1 0x1 PUSH1 0xA0 SHL SUB DUP3 AND PUSH1 0x0 DUP2 DUP2 MSTORE PUSH1 0x1 PUSH1 0x20 DUP2 SWAP1 MSTORE PUSH1 0x40 DUP1 DUP4 KECCAK256 SWAP1 SWAP2 ADD DUP1 SLOAD PUSH1 0x2 PUSH1 0x1 PUSH1 0x1 PUSH1 0xE8 SHL SUB NOT SWAP1 SWAP2 AND CALLER PUSH2 0x100 DUP2 MUL PUSH8 0xFFFFFFFFFFFFFFFF PUSH1 0xA8 SHL NOT AND SWAP2 SWAP1 SWAP2 OR PUSH1 0x1 PUSH1 0xA8 SHL TIMESTAMP PUSH8 0xFFFFFFFFFFFFFFFF AND MUL OR SWAP2 SWAP1 SWAP2 OR SWAP1 SWAP2 SSTORE SWAP1 MLOAD SWAP1 SWAP3 SWAP2 PUSH32 0x25E4589528AA4C1DCD5C91AB0CC06E99D962229FB9E54162702032772A1655A0 SWAP2 LOG3 POP POP JUMP JUMPDEST PUSH1 0x1 PUSH1 0x1 PUSH1 0xA0 SHL SUB DUP2 AND PUSH1 0x0 SWAP1 DUP2 MSTORE PUSH1 0x1 PUSH1 0x20 DUP2 SWAP1 MSTORE PUSH1 0x40 DUP3 KECCAK256 ADD SLOAD PUSH1 0x2 SWAP1 PUSH1 0xFF AND PUSH1 0x3 DUP2 GT ISZERO PUSH2 0x9BE JUMPI PUSH2 0x9BE PUSH2 0xC4A JUMP JUMPDEST EQ SWAP3 SWAP2 POP POP JUMP JUMPDEST PUSH1 0x0 PUSH2 0x9D0 DUP2 PUSH2 0xA5A JUMP JUMPDEST PUSH1 0x1 PUSH1 0x1 PUSH1 0xA0 SHL SUB DUP3 AND PUSH2 0xA21 JUMPI PUSH1 0x40 MLOAD PUSH3 0x461BCD PUSH1 0xE5 SHL DUP2 MSTORE PUSH1 0x20 PUSH1 0x4 DUP3 ADD MSTORE PUSH1 0x18 PUSH1 0x24 DUP3 ADD MSTORE PUSH24 0x496E76616C69642076657269666965722061646472657373 PUSH1 0x40 SHL PUSH1 0x44 DUP3 ADD MSTORE PUSH1 0x64 ADD PUSH2 0x342 JUMP JUMPDEST PUSH2 0x7EE PUSH1 0x0 DUP1 MLOAD PUSH1 0x20 PUSH2 0xCB4 DUP4 CODECOPY DUP2 MLOAD SWAP2 MSTORE DUP4 JUMPDEST PUSH1 0x0 DUP3 DUP2 MSTORE PUSH1 0x20 DUP2 SWAP1 MSTORE PUSH1 0x40 SWAP1 KECCAK256 PUSH1 0x1 ADD SLOAD PUSH2 0xA50 DUP2 PUSH2 0xA5A JUMP JUMPDEST PUSH2 0x684 DUP4 DUP4 PUSH2 0xAF9 JUMP JUMPDEST PUSH2 0xA64 DUP2 CALLER PUSH2 0xB64 JUMP JUMPDEST POP JUMP JUMPDEST PUSH1 0x0 PUSH2 0xA73 DUP4 DUP4 PUSH2 0x7F2 JUMP JUMPDEST PUSH2 0xAF1 JUMPI PUSH1 0x0 DUP4 DUP2 MSTORE PUSH1 0x20 DUP2 DUP2 MSTORE PUSH1 0x40 DUP1 DUP4 KECCAK256 PUSH1 0x1 PUSH1 0x1 PUSH1 0xA0 SHL SUB DUP7 AND DUP5 MSTORE SWAP1 SWAP2 MSTORE SWAP1 KECCAK256 DUP1 SLOAD PUSH1 0xFF NOT AND PUSH1 0x1 OR SWAP1 SSTORE PUSH2 0xAA9 CALLER SWAP1 JUMP JUMPDEST PUSH1 0x1 PUSH1 0x1 PUSH1 0xA0 SHL SUB AND DUP3 PUSH1 0x1 PUSH1 0x1 PUSH1 0xA0 SHL SUB AND DUP5 PUSH32 0x2F8788117E7EFF1D82E926EC794901D17C78024A50270940304540A733656F0D PUSH1 0x40 MLOAD PUSH1 0x40 MLOAD DUP1 SWAP2 SUB SWAP1 LOG4 POP PUSH1 0x1 PUSH2 0x2DB JUMP JUMPDEST POP PUSH1 0x0 PUSH2 0x2DB JUMP JUMPDEST PUSH1 0x0 PUSH2 0xB05 DUP4 DUP4 PUSH2 0x7F2 JUMP JUMPDEST ISZERO PUSH2 0xAF1 JUMPI PUSH1 0x0 DUP4 DUP2 MSTORE PUSH1 0x20 DUP2 DUP2 MSTORE PUSH1 0x40 DUP1 DUP4 KECCAK256 PUSH1 0x1 PUSH1 0x1 PUSH1 0xA0 SHL SUB DUP7 AND DUP1 DUP6 MSTORE SWAP3 MSTORE DUP1 DUP4 KECCAK256 DUP1 SLOAD PUSH1 0xFF NOT AND SWAP1 SSTORE MLOAD CALLER SWAP3 DUP7 SWAP2 PUSH32 0xF6391F5C32D9C69D2A47EA670B442974B53935D1EDC7FD64EB21E047A839171B SWAP2 SWAP1 LOG4 POP PUSH1 0x1 PUSH2 0x2DB JUMP JUMPDEST PUSH2 0xB6E DUP3 DUP3 PUSH2 0x7F2 JUMP JUMPDEST PUSH2 0x7EE JUMPI PUSH1 0x40 MLOAD PUSH4 0xE2517D3F PUSH1 0xE0 SHL DUP2 MSTORE PUSH1 0x1 PUSH1 0x1 PUSH1 0xA0 SHL SUB DUP3 AND PUSH1 0x4 DUP3 ADD MSTORE PUSH1 0x24 DUP2 ADD DUP4 SWAP1 MSTORE PUSH1 0x44 ADD PUSH2 0x342 JUMP JUMPDEST PUSH1 0x0 PUSH1 0x20 DUP3 DUP5 SUB SLT ISZERO PUSH2 0xBAF JUMPI PUSH1 0x0 DUP1 REVERT JUMPDEST DUP2 CALLDATALOAD PUSH1 0x1 PUSH1 0x1 PUSH1 0xE0 SHL SUB NOT DUP2 AND DUP2 EQ PUSH2 0xBC7 JUMPI PUSH1 0x0 DUP1 REVERT JUMPDEST SWAP4 SWAP3 POP POP POP JUMP JUMPDEST DUP1 CALLDATALOAD PUSH1 0x1 PUSH1 0x1 PUSH1 0xA0 SHL SUB DUP2 AND DUP2 EQ PUSH2 0xBE5 JUMPI PUSH1 0x0 DUP1 REVERT JUMPDEST SWAP2 SWAP1 POP JUMP JUMPDEST PUSH1 0x0 PUSH1 0x20 DUP3 DUP5 SUB SLT ISZERO PUSH2 0xBFC JUMPI PUSH1 0x0 DUP1 REVERT JUMPDEST PUSH2 0xBC7 DUP3 PUSH2 0xBCE JUMP JUMPDEST PUSH1 0x0 PUSH1 0x20 DUP3 DUP5 SUB SLT ISZERO PUSH2 0xC17 JUMPI PUSH1 0x0 DUP1 REVERT JUMPDEST POP CALLDATALOAD SWAP2 SWAP1 POP JUMP JUMPDEST PUSH1 0x0 DUP1 PUSH1 0x40 DUP4 DUP6 SUB SLT ISZERO PUSH2 0xC31 JUMPI PUSH1 0x0 DUP1 REVERT JUMPDEST DUP3 CALLDATALOAD SWAP2 POP PUSH2 0xC41 PUSH1 0x20 DUP5 ADD PUSH2 0xBCE JUMP JUMPDEST SWAP1 POP SWAP3 POP SWAP3 SWAP1 POP JUMP JUMPDEST PUSH4 0x4E487B71 PUSH1 0xE0 SHL PUSH1 0x0 MSTORE PUSH1 0x21 PUSH1 0x4 MSTORE PUSH1 0x24 PUSH1 0x0 REVERT JUMPDEST DUP5 DUP2 MSTORE PUSH1 0x80 DUP2 ADD PUSH1 0x4 DUP6 LT PUSH2 0xC85 JUMPI PUSH4 0x4E487B71 PUSH1 0xE0 SHL PUSH1 0x0 MSTORE PUSH1 0x21 PUSH1 0x4 MSTORE PUSH1 0x24 PUSH1 0x0 REVERT JUMPDEST PUSH1 0x20 DUP3 ADD SWAP5 SWAP1 SWAP5 MSTORE PUSH1 0x1 PUSH1 0x1 PUSH1 0xA0 SHL SUB SWAP3 SWAP1 SWAP3 AND PUSH1 0x40 DUP4 ADD MSTORE PUSH8 0xFFFFFFFFFFFFFFFF AND PUSH1 0x60 SWAP1 SWAP2 ADD MSTORE SWAP2 SWAP1 POP JUMP INVALID 0xC 0xE2 EXTCODECOPY RETURNDATACOPY CODECOPY SWAP9 XOR 0xCF 0xEE DUP2 0xA7 0xAB ADDMOD DUP1 0xF7 EQ 0xE5 RETURNDATASIZE PUSH23 0x72B08DF0FA62F2843416E1EA09A2646970667358221220 CALLER GT ADDRESS JUMP 0xF 0xC4 PUSH25 0x2476BA385BD7289F1D4CBB2D9FE0CA4F10DAC19B5505899083 PUSH5 0x736F6C6343 STOP ADDMOD SHR STOP CALLER "},"methodIdentifiers":{"DEFAULT_ADMIN_ROLE()":"a217fddf","VERIFIER_ROLE()":"e7705db6","addVerifier(address)":"9000b3d6","getIdentityRecord(address)":"5ad0c0bf","getRoleAdmin(bytes32)":"248a9ca3","grantRole(bytes32,address)":"2f2ff15d","hasRole(bytes32,address)":"91d14854","identities(address)":"f653b81e","isVerified(address)":"b9209e33","registerIdentity(bytes32)":"103d9fae","removeVerifier(address)":"ca2dfd0a","renounceRole(bytes32,address)":"36568abe","revokeIdentity(address)":"0ebddd17","revokeRole(bytes32,address)":"d547741f","supportsInterface(bytes4)":"01ffc9a7","verifyIdentity(address)":"b5b90fd9"}}}}}