{
  "_format": "hh-sol-artifact-1",
  "contractName": "IdentityVerifier",
  "sourceName": "contracts/IdentityVerifier.sol",
  "abi": [
    {
      "inputs": [],
      "stateMutability": "nonpayable",
      "type": "constructor"
    },
    {
      "inputs": [],
      "name": "AccessControlBadConfirmation",
      "type": "error"
    },
    {
      "inputs": [
        {
          "internalType": "address",
          "name": "account",
          "type": "address"
        },
        {
          "internalType": "bytes32",
          "name": "neededRole",
          "type": "bytes32"
        }
      ],
      "name": "AccessControlUnauthorizedAccount",
      "type": "error"
    },
    {
      "anonymous": false,
      "inputs": [
        {
          "indexed": true,
          "internalType": "address",
          "name": "user",
          "type": "address"
        },
        {
          "indexed": false,
          "internalType": "bytes32",
          "name": "document_hash",
          "type": "bytes32"
        }
      ],
      "name": "IdentityRegistered",
      "type": "event"
    },
    {
      "anonymous": false,
      "inputs": [
        {
          "indexed": true,
          "internalType": "address",
          "name": "user",
          "type": "address"
        },
        {
          "indexed": true,
          "internalType": "address",
          "name": "rejecter",
          "type": "address"
        }
      ],
      "name": "IdentityRejected",
      "type": "event"
    },
    {
      "anonymous": false,
      "inputs": [
        {
          "indexed": true,
          "internalType": "address",
          "name": "user",
          "type": "address"
        },
        {
          "indexed": true,
          "internalType": "address",
          "name": "revoker",
          "type": "address"
        }
      ],
      "name": "IdentityRevoked",
      "type": "event"
    },
    {
      "anonymous": false,
      "inputs": [
        {
          "indexed": true,
          "internalType": "address",
          "name": "user",
          "type": "address"
        },
        {
          "indexed": true,
          "internalType": "address",
          "name": "verifier",
          "type": "address"
        }
      ],
      "name": "IdentityVerified",
      "type": "event"
    },
    {
      "anonymous": false,
      "inputs": [
        {
          "indexed": true,
          "internalType": "bytes32",
          "name": "role",
          "type": "bytes32"
        },
        {
          "indexed": true,
          "internalType": "bytes32",
          "name": "previousAdminRole",
          "type": "bytes32"
        },
        {
          "indexed": true,
          "internalType": "bytes32",
          "name": "newAdminRole",
          "type": "bytes32"
        }
      ],
      "name": "RoleAdminChanged",
      "type": "event"
    },
    {
      "anonymous": false,
      "inputs": [
        {
          "indexed": true,
          "internalType": "bytes32",
          "name": "role",
          "type": "bytes32"
        },
        {
          "indexed": true,
          "internalType": "address",
          "name": "account",
          "type": "address"
        },
        {
          "indexed": true,
          "internalType": "address",
          "name": "sender",
          "type": "address"
        }
      ],
      "name": "RoleGranted",
      "type": "event"
    },
    {
      "anonymous": false,
      "inputs": [
        {
          "indexed": true,
          "internalType": "bytes32",
          "name": "role",
          "type": "bytes32"
        },
        {
          "indexed": true,
          "internalType": "address",
          "name": "account",
          "type": "address"
        },
        {
          "indexed": true,
          "internalType": "address",
          "name": "sender",
          "type": "address"
        }
      ],
      "name": "RoleRevoked",
      "type": "event"
    },
    {
      "inputs": [],
      "name": "DEFAULT_ADMIN_ROLE",
      "outputs": [
        {
          "internalType": "bytes32",
          "name": "",
          "type": "bytes32"
        }
      ],
      "stateMutability": "view",
      "type": "function"
    },
    {
      "inputs": [],
      "name": "VERIFIER_ROLE",
      "outputs": [
        {
          "internalType": "bytes32",
          "name": "",
          "type": "bytes32"
        }
      ],
      "stateMutability": "view",
      "type": "function"
    },
    {
      "inputs": [
        {
          "internalType": "address",
          "name": "_verifier",
          "type": "address"
        }
      ],
      "name": "addVerifier",
      "outputs": [],
      "stateMutability": "nonpayable",
      "type": "function"
    },
    {
      "inputs": [
        {
          "internalType": "address",
          "name": "_user",
          "type": "address"
        }
      ],
      "name": "getIdentityRecord",
      "outputs": [
        {
          "internalType": "bytes32",
          "name": "documentHash",
          "type": "bytes32"
        },
        {
          "internalType": "enum IdentityVerifier.Status",
          "name": "status",
          "type": "uint8"
        },
        {
          "internalType": "address",
          "name": "verifiedBy",
          "type": "address"
        },
        {
          "internalType": "uint256",
          "name": "timestamp",
          "type": "uint256"
        }
      ],
      "stateMutability": "view",
      "type": "function"
    },
    {
      "inputs": [
        {
          "internalType": "bytes32",
          "name": "role",
          "type": "bytes32"
        }
      ],
      "name": "getRoleAdmin",
      "outputs": [
        {
          "internalType": "bytes32",
          "name": "",
          "type": "bytes32"
        }
      ],
      "stateMutability": "view",
      "type": "function"
    },
    {
      "inputs": [
        {
          "internalType": "bytes32",
          "name": "role",
          "type": "bytes32"
        },
        {
          "internalType": "address",
          "name": "account",
          "type": "address"
        }
      ],
      "name": "grantRole",
      "outputs": [],
      "stateMutability": "nonpayable",
      "type": "function"
    },
    {
      "inputs": [
        {
          "internalType": "bytes32",
          "name": "role",
          "type": "bytes32"
        },
        {
          "internalType": "address",
          "name": "account",
          "type": "address"
        }
      ],
      "name": "hasRole",
      "outputs": [
        {
          "internalType": "bool",
          "name": "",
          "type": "bool"
        }
      ],
      "stateMutability": "view",
      "type": "function"
    },
    {
      "inputs": [
        {
          "internalType": "address",
          "name": "",
          "type": "address"
        }
      ],
      "name": "identities",
      "outputs": [
        {
          "internalType": "bytes32",
          "name": "document_hash",
          "type": "bytes32"
        },
        {
          "internalType": "enum IdentityVerifier.Status",
          "name": "status",
          "type": "uint8"
        },
        {
          "internalType": "address",
          "name": "verified_by",
          "type": "address"
        },
        {
          "internalType": "uint256",
          "name": "timestamp",
          "type": "uint256"
        }
      ],
      "stateMutability": "view",
      "type": "function"
    },
    {
      "inputs": [
        {
          "internalType": "address",
          "name": "_user",
          "type": "address"
        }
      ],
      "name": "isVerified",
      "outputs": [
        {
          "internalType": "bool",
          "name": "",
          "type": "bool"
        }
      ],
      "stateMutability": "view",
      "type": "function"
    },
    {
      "inputs": [
        {
          "internalType": "bytes32",
          "name": "_document_hash",
          "type": "bytes32"
        }
      ],
      "name": "registerIdentity",
      "outputs": [],
      "stateMutability": "nonpayable",
      "type": "function"
    },
    {
      "inputs": [
        {
          "internalType": "address",
          "name": "_user",
          "type": "address"
        }
      ],
      "name": "rejectIdentity",
      "outputs": [],
      "stateMutability": "nonpayable",
      "type": "function"
    },
    {
      "inputs": [
        {
          "internalType": "address",
          "name": "_verifier",
          "type": "address"
        }
      ],
      "name": "removeVerifier",
      "outputs": [],
      "stateMutability": "nonpayable",
      "type": "function"
    },
    {
      "inputs": [
        {
          "internalType": "bytes32",
          "name": "role",
          "type": "bytes32"
        },
        {
          "internalType": "address",
          "name": "callerConfirmation",
          "type": "address"
        }
      ],
      "name": "renounceRole",
      "outputs": [],
      "stateMutability": "nonpayable",
      "type": "function"
    },
    {
      "inputs": [
        {
          "internalType": "address",
          "name": "_user",
          "type": "address"
        }
      ],
      "name": "revokeIdentity",
      "outputs": [],
      "stateMutability": "nonpayable",
      "type": "function"
    },
    {
      "inputs": [
        {
          "internalType": "bytes32",
          "name": "role",
          "type": "bytes32"
        },
        {
          "internalType": "address",
          "name": "account",
          "type": "address"
        }
      ],
      "name": "revokeRole",
      "outputs": [],
      "stateMutability": "nonpayable",
      "type": "function"
    },
    {
      "inputs": [
        {
          "internalType": "bytes4",
          "name": "interfaceId",
          "type": "bytes4"
        }
      ],
      "name": "supportsInterface",
      "outputs": [
        {
          "internalType": "bool",
          "name": "",
          "type": "bool"
        }
      ],
      "stateMutability": "view",
      "type": "function"
    },
    {
      "inputs": [
        {
          "internalType": "address",
          "name": "_user",
          "type": "address"
        }
      ],
      "name": "verifyIdentity",
      "outputs": [],
      "stateMutability": "nonpayable",
      "type": "function"
    }
  ],
  "bytecode": "0x6080604052348015600f57600080fd5b506019600033601e565b5060c7565b6000828152602081815260408083206001600160a01b038516845290915281205460ff1660bd576000838152602081815260408083206001600160a01b03861684529091529020805460ff1916600117905560763390565b6001600160a01b0316826001600160a01b0316847f2f8788117e7eff1d82e926ec794901d17c78024a50270940304540a733656f0d60405160405180910390a450600160c1565b5060005b92915050565b610d69806100d66000396000f3fe608060405234801561001057600080fd5b506004361061010b5760003560e01c80639000b3d6116100a2578063b9209e3311610071578063b9209e331461022e578063ca2dfd0a14610241578063d547741f14610254578063e7705db614610267578063f653b81e1461027c57600080fd5b80639000b3d6146101ed57806391d1485414610200578063a217fddf14610213578063b5b90fd91461021b57600080fd5b80632f2ff15d116100de5780632f2ff15d14610191578063333415e2146101a457806336568abe146101b75780635ad0c0bf146101ca57600080fd5b806301ffc9a7146101105780630ebddd1714610138578063103d9fae1461014d578063248a9ca314610160575b600080fd5b61012361011e366004610bd9565b6102be565b60405190151581526020015b60405180910390f35b61014b610146366004610c26565b6102f5565b005b61014b61015b366004610c41565b610410565b61018361016e366004610c41565b60009081526020819052604090206001015490565b60405190815260200161012f565b61014b61019f366004610c5a565b6105db565b61014b6101b2366004610c26565b610606565b61014b6101c5366004610c5a565b610718565b6101dd6101d8366004610c26565b610750565b60405161012f9493929190610c9c565b61014b6101fb366004610c26565b6107f9565b61012361020e366004610c5a565b610871565b610183600081565b61014b610229366004610c26565b61089a565b61012361023c366004610c26565b6109c7565b61014b61024f366004610c26565b610a01565b61014b610262366004610c5a565b610a71565b610183600080516020610d1483398151915281565b6101dd61028a366004610c26565b600160208190526000918252604090912080549181015460029091015460ff82169161010090046001600160a01b03169084565b60006001600160e01b03198216637965db0b60e01b14806102ef57506301ffc9a760e01b6001600160e01b03198316145b92915050565b600080516020610d1483398151915261030d81610a96565b6001600160a01b03821661033c5760405162461bcd60e51b815260040161033390610ce5565b60405180910390fd5b60026001600160a01b0383166000908152600160208190526040909120015460ff16600481111561036f5761036f610c86565b146103bc5760405162461bcd60e51b815260206004820152601e60248201527f43616e206f6e6c79207265766f6b6520566572696669656420757365727300006044820152606401610333565b6001600160a01b0382166000818152600160208190526040808320909101805460ff19166003179055513392917fd7533bea9fdce549b772c9bf708932fcf1560edaa0c94df3f90e65e75eb7565791a35050565b60008190036104585760405162461bcd60e51b8152602060048201526014602482015273486173682063616e6e6f7420626520656d70747960601b6044820152606401610333565b3360009081526001602081905260408220015460ff16600481111561047f5761047f610c86565b14806104b257506003336000908152600160208190526040909120015460ff1660048111156104b0576104b0610c86565b145b61050d5760405162461bcd60e51b815260206004820152602660248201527f4964656e7469747920616c72656164792072656769737465726564206f722070604482015265656e64696e6760d01b6064820152608401610333565b60408051608081018252828152600160208083018281526000848601819052606085018190523381529183905293902082518155925183820180549394939192909160ff19169083600481111561056657610566610c86565b02179055506040828101516001830180546001600160a01b0390921661010002610100600160a81b03199092169190911790556060909201516002909101555181815233907f209ae2eb4ff1890ce972a80ec3e167b52d41ab089135cc6430447b1430e824be9060200160405180910390a250565b6000828152602081905260409020600101546105f681610a96565b6106008383610aa3565b50505050565b600080516020610d1483398151915261061e81610a96565b6001600160a01b0382166106445760405162461bcd60e51b815260040161033390610ce5565b60016001600160a01b0383166000908152600160208190526040909120015460ff16600481111561067757610677610c86565b146106c45760405162461bcd60e51b815260206004820152601d60248201527f43616e206f6e6c792072656a6563742050656e64696e672075736572730000006044820152606401610333565b6001600160a01b0382166000818152600160208190526040808320909101805460ff19166004179055513392917f52a850a224a7b0be57066372d4d888fc05800957baa5565f7c0478d951a174ba91a35050565b6001600160a01b03811633146107415760405163334bd91960e11b815260040160405180910390fd5b61074b8282610b35565b505050565b6001600160a01b03811660009081526001602081815260408084208151608081019092528054825292830154849384938493849390929183019060ff16600481111561079e5761079e610c86565b60048111156107af576107af610c86565b8152600182015461010090046001600160a01b0316602080830191909152600290920154604091820152825191830151908301516060909301519199909850919650945092505050565b600061080481610a96565b6001600160a01b0382166108555760405162461bcd60e51b8152602060048201526018602482015277496e76616c6964207665726966696572206164647265737360401b6044820152606401610333565b61086d600080516020610d14833981519152836105db565b5050565b6000918252602082815260408084206001600160a01b0393909316845291905290205460ff1690565b600080516020610d148339815191526108b281610a96565b6001600160a01b0382166108d85760405162461bcd60e51b815260040161033390610ce5565b60016001600160a01b0383166000908152600160208190526040909120015460ff16600481111561090b5761090b610c86565b146109585760405162461bcd60e51b815260206004820152601d60248201527f55736572206973206e6f7420696e2050656e64696e67207374617475730000006044820152606401610333565b6001600160a01b0382166000818152600160208190526040808320918201805460026001600160a81b031990911633610100810291909117821790925542930192909255519092917f25e4589528aa4c1dcd5c91ab0cc06e99d962229fb9e54162702032772a1655a091a35050565b6001600160a01b03811660009081526001602081905260408220015460029060ff1660048111156109fa576109fa610c86565b1492915050565b6000610a0c81610a96565b6001600160a01b038216610a5d5760405162461bcd60e51b8152602060048201526018602482015277496e76616c6964207665726966696572206164647265737360401b6044820152606401610333565b61086d600080516020610d14833981519152835b600082815260208190526040902060010154610a8c81610a96565b6106008383610b35565b610aa08133610ba0565b50565b6000610aaf8383610871565b610b2d576000838152602081815260408083206001600160a01b03861684529091529020805460ff19166001179055610ae53390565b6001600160a01b0316826001600160a01b0316847f2f8788117e7eff1d82e926ec794901d17c78024a50270940304540a733656f0d60405160405180910390a45060016102ef565b5060006102ef565b6000610b418383610871565b15610b2d576000838152602081815260408083206001600160a01b0386168085529252808320805460ff1916905551339286917ff6391f5c32d9c69d2a47ea670b442974b53935d1edc7fd64eb21e047a839171b9190a45060016102ef565b610baa8282610871565b61086d5760405163e2517d3f60e01b81526001600160a01b038216600482015260248101839052604401610333565b600060208284031215610beb57600080fd5b81356001600160e01b031981168114610c0357600080fd5b9392505050565b80356001600160a01b0381168114610c2157600080fd5b919050565b600060208284031215610c3857600080fd5b610c0382610c0a565b600060208284031215610c5357600080fd5b5035919050565b60008060408385031215610c6d57600080fd5b82359150610c7d60208401610c0a565b90509250929050565b634e487b7160e01b600052602160045260246000fd5b8481526080810160058510610cc157634e487b7160e01b600052602160045260246000fd5b60208201949094526001600160a01b03929092166040830152606090910152919050565b602080825260149082015273496e76616c69642075736572206164647265737360601b60408201526060019056fe0ce23c3e399818cfee81a7ab0880f714e53d7672b08df0fa62f2843416e1ea09a2646970667358221220b6cbb74c165ede796bb979671a5c67321c4cb4034cb5c029316571d2706a38bc64736f6c634300081c0033",
  "linkReferences": {},
  "deployedLinkReferences": {}
}